:020000000C945E
:100002007E000C9400000C9400000C9400000C94F0
:1000120000000C9400000C9400000C9400000C945E
:1000220000000C9400000C9400000C9400000C944E
:1000320000000C9400000C9400000C9400000C943E
:100042006A050C9400000C9400000C9400000C94BF
:1000520000000C9400000C9400000C9400000C941E
:1000620000000C9400000C9400000C9400000C940E
:1000720000000C9400000C94AE040C9400000C944C
:1000820000000C9400000C9400001027E8036400A8
:100092000A00010000100001100001000000000031
:1000A20000000000B802BB02DE02FB02FE020103F6
:1000B200040307030A030D03200335034803530314
:1000C2005E03690374037F038A039503AC03C303CE
:1000D200CE03D90301002D4E414E00494E46000089
:1000E200080004009E0018001E05A6001800360530
:1000F200BE0001004806D6000000F894EE27ECBBD3
:10010200F1E0F5BFE5BFE0936C00F8E1F1BDE1BDC0
:100112008DE0A2E0BB27ED938A95E9F780E090E1BC
:10012200A0E0B1E0ED930197E9F7E2EEF0E085910E
:100132009591009761F0A591B59105901590BF0139
:10014200F00105900D920197E1F7FB01F0CF8BBF13
:10015200EFEFEDBFE0E1EEBFC0E0D5E00C944A0660
:10016200AA93A981BA81A030E1E0BE0718F0EFEFAF
:100172000C94AC0424D0EB81EE7FAE2F0E9470066B
:10018200E981AE2F0E947006A8810E9470061ED0DF
:1001920003D0E0E00C94AC04000008951A93D89ABE
:1001A200D0980E9474061E2FF7DFD998D09AF4DFF8
:1001B200103011F0EFEF01C0E0E019910895D89AE4
:1001C200D99AEADFD8980E947B060895D998D898E0
:1001D200E3DFD99AE1DFD89A0895AA931A930A9392
:1001E20010E0183090F4E12FA0E80E94B608AA812E
:1001F200EA230E2F003011F0D89A01C0D898CCDF34
:10020200D99A0E947B061F5FECCF19810881239641
:1002120008950E94F50810E030E0D89AD09810E0D6
:10022200183068F40E9474060E2FE7E0E11BA02F3D
:100232000E94AE083E2B0E947B061F5FF1CFD09A30
:10024200E32F0E94FC080C94AC04E0E9EA93E1E09D
:10025200F0E0FA93EA93A0E083DF08950E94F308A6
:10026200AEDFA0E90E947006A0E00E947006A7DF40
:10027200A1E90E947006CDDF3E2F90DFCADF2E2F4C
:100282008DDFA4DFE32FF0E0EE0FFF1FEE7FF170B2
:10029200DF01E22FEE1FE0E0EE1FE170F0E0EA2B5B
:1002A200FB2B8F010B3FE0E01E0718F040E050E00F
:1002B2000EC0F801662777270E946907A0E0B0E028
:1002C20080E09FE30E94EE070E943207AF014739A8
:1002D200E0E05E0714F046E950E0FA010E94FA08F5
:1002E2004BC0A0E0B0E01CD008950E948006EA81D5
:1002F200FB810E94DD080E946907A0E0B0EF8FE752
:1003020095E40E948506E0E0F0E068EC72E40E9469
:100312003C080E9430078F01D80102D00C94AA0435
:10032200BA93AA930E94F508DB9AD99ADA9800E068
:1003320010E00C30E0E01E07C4F4E02FA0E0B8E0CB
:100342000E94BE08AC81BD81EA23FB239F01022EDD
:10035200032A11F0D89A01C0D8980E947B06D99A34
:100362000E94CD000F5F1F4FE4CFDA9ADB980E9404
:10037200CD00DB9A0E94FC0826960895E5E5EDB9CA
:10038200E0E0EEB995D0DCD0E0E0EA93A5E097D0CA
:10039200E2E0EA93A8E293D0E3E0EA93A3E08FD00D
:1003A200089528970E948A060E9499060E94A00634
:1003B2000E94A506E0E0F0E060E87FE30E94810889
:1003C20060F0EE81FF8168857985A0E0B0E080E889
:1003D2009FE30E949C070E94A006E0910605F0910F
:1003E20007050E94DD080E946907A0E0B0E088ECE2
:1003F20092E40E94E6080E949C07AFE8B2EC85E70F
:100402009CE30E94EE070E94A5060E94E6080E9455
:100412009C070E94A0060E94A506E3EEF5EA6BE99E
:100422007CE30E943C08A0E0B0E080E291E40E94FC
:10043200EE070E9432078F010D3DE5E01E0714F022
:100442000CED15E0112312F400E010E0009300051A
:1004520010930105198108812A96089564970E94D4
:100462008A060E9499060E94AA06A2E0B5E009C087
:1004720064970E948A060E9499060E94AA06A4E036
:10048200B5E00E943207ED93FC93198108816696CC
:100492000895AA93A998E0E0EA93E981E770EE0F44
:1004A200EE0FEE0FE560AE2F0AD0A99A0C9401056B
:1004B200A998A6E155D0A99A0E94B9060895AA93CF
:1004C200A998E981EF70E064AE2F4AD0A0E048D04D
:1004D200A88146D085E38A95F1F7A99A86C1249727
:1004E2000E94F508A998A2E13BD031D01E2F2FD04F
:1004F2000E2F2DD03E2FE12FFF27662777270E9450
:10050200D8087F936F93FF93EF93A02FBB27882781
:100512009927E8E00E94C708AF91BF918F919F9100
:100522000E94A108DF01CB01E32FFF27662777276F
:100532000E94A108EC83FD836E837F83A99A6EC11A
:10054200A99AA6E00DD00E94B906A99808951A9317
:10055200E0E0EFB9779BFECF1FB1E12F0C942706A5
:10056200AA93E881EFB9779BFECF0C940105BA9369
:10057200AA933AC10E94BD060E94C40619F0E1E0A6
:10058200F0E002C0E0E0F0E00E94C40659F00E94F0
:10059200CA060E947601E0916500E77FE09365005C
:1005A200DC9A0AC0A0E0B0E00E947601E09165000A
:1005B200E860E0936500DC9817C10E94BD06E093F5
:1005C2001C05F0931D050E94CA06A536E0E0BE0791
:1005D20034F0E4E6F0E0E0931C05F0931D05E091B1
:1005E2001A05F0911B05309721F00E94CA060E945D
:1005F2007601FAC0BA93AA93F7C0BA93AA93F4C049
:10060200BA93AA93F1C0BA93AA93EEC0BA93AA93EB
:10061200EBC0BA93AA93E8C00E94BD06E09314050A
:10062200F0931505A0911405B0911505559734F076
:10063200E4E1F0E0E0931405F0931505D5C00E94C3
:10064200BD06E0931205F0931305A0911205B09137
:100652001305A536E0E0BE0734F0E4E6F0E0E093EF
:100662001205F0931305C0C00E94BD06E093160563
:10067200F0931705A0911605B09117051B9734F05A
:10068200EAE0F0E0E0931605F0931705ADC00E9492
:10069200CF06E0911805F09119050E94D706E09166
:1006A200180590C00E94CF06E0911A05F0911B0533
:1006B2000E94D706E0911A0585C00E94CF06E091FC
:1006C2001C05F0911D050E94D706E0911C057AC019
:1006D2000E94CF06E0910205F09103050E94D70621
:1006E200E09102056FC00E94CF06E0910405F091EF
:1006F20005050E94D706E091040564C00E94CF065A
:10070200E0910C05F0910D050E94D706E0910C05D1
:1007120059C00E94CF06E0910005F09101050E94A8
:10072200D706E09100054EC0BA93AA93A4E00E94B6
:100732004405E0930E05F0930F05A881B981129646
:10074200E0E8EC93E0910E05F0910F050E94D706C8
:10075200E0910E0537C0BA93AA93A5E00E94440522
:10076200E0931005F0931105A881B9811296E0E893
:10077200EC93E0911005F09111050E94D706E091EB
:10078200100520C00E94CF06E0911405F0911505D6
:100792000E94D706E091140515C00E94CF06E09191
:1007A2001205F09113050E94D706E09112050AC0C6
:1007B2000E94CF06E0911605F09117050E94D70618
:1007C200E0911605A881B9811496EC93E881F9812C
:1007D2000E94DE06A881B9811596EC93E881F98121
:1007E200FA93EA93A7E039D1E1E022960895BA9309
:1007F200AA930E94F50830E000E010E0EC81FD8150
:100802000E171F0754F4F801AE81BF81AE0FBF1F50
:10081200EC913E0F0F5F1F4FF1CFE32F0E94FC08B8
:10082200289608956E970E94F308FE013696FA9371
:10083200EA93A7E0E7D01E2FFE013696AF01FE0134
:1008420036960E94DE060E2FFA013581173051F4DA
:10085200031741F4DA01AC91A23021F4FA01A68126
:10086200A33009F00CC0FA01A181A23521F4DE0106
:10087200169655D003C0DE0116962CD005C0FE0197
:1008820036960E94E406AED00E94FA08A496089515
:10089200AA931A930A930B811C81EA81D8011296BA
:1008A200EC93D8011396E0E0EC93D8011496EC9304
:1008B2001A930A93A5E0B0E09ADFD8011596EC935B
:1008C200EB81FC81FA93EA93A7E0C7D019810881F2
:1008D2000C9468050E9480060A811B81F801A2819E
:1008E200AC30D0F4E281AEE1B5E00E94E906FF93BC
:1008F200EF93D801EF91FF910995E13031F4EA814C
:10090200FB81FA93EA93A0E805C0EA81FB81FA939E
:10091200EA93A1E8BDDF02C00E94F1061AC00E945C
:1009220080060A811B81F801A281AC3080F4E28149
:10093200A6E3B5E00E94E906FF93EF93D801EF9199
:10094200FF910995E03011F40E94F10602C00E9465
:10095200F1061981088124960895EA93FA93EFB774
:10096200EA931A930A9310919B0000919C00E12F45
:10097200EC71A9F4E72D7394F0E0E25BFA4F008387
:10098200EAEFE71509F477249394EAEFE91519F4ED
:100992009924E1E08E2E40900A0550900B050991B2
:1009A2001991E991EFBFF991E99118951A93E0E055
:1009B200E91588F4E62D6394F0E0E25BFA4F1081CA
:1009C200EAEFE61509F46624F8949A947894BB2425
:1009D200E12F0C942706E1E0BE2EE0E00C942706FE
:1009E200E92D0895F894992466247724789408953B
:1009F200AA93E0919B00E072E1F3E881E0939C000E
:100A020021960895AA930E94F50810E000E0209133
:100A12000A0530910B05EC811E17D0F4C7DF0E2FAB
:100A2200BB2041F4E12FAD81BE81F0E0EA0FFB1F54
:100A320000831F5FA0910A05B0910B05A21BB30BA7
:100A4200A93BEBE0BE0718F0CDDFE0E002C0E3CF48
:100A5200E12F0E94FC0827960895AA931A930A93FD
:100A620010E0EA811E1750F4E12F1F5FAB81BC81B9
:100A7200F0E0AE0FBF1FAC91BBDFF3CFE12F1981C6
:100A820008810C946805AA930E94F508EC81E7B9E5
:100A920085E38A95F1F7369A349BFECF349A04B1F6
:100AA20015B1F801662777270E946907A0E0B0E038
:100AB20088E492E40E948506E0E0F0E060E874E4F5
:100AC2000E943C080E9432079F010E94FC08259662
:100AD2000895AA93BA93EA93FA93EFB7EA93E6E0FA
:100AE200E2BFAAE0B5E0ED91FD913196FE93EE935F
:100AF200E991EFBFF991E991B991A9911895EFE9BF
:100B0200EABBE4E0EBBBE7EFE7BBE0EEE8BBEFEF0D
:100B1200E4BBE4E0E5BBE1E9E1BBE1E0E2BBE2E149
:100B2200E2B9E0E0E0936100E0936200EFEFE0936E
:100B32006400E8E0E0936500E0E0E0BFE4E0E3BFEA
:100B4200E6E0E2BFE0E0E1BFE1E0E7BFE0E0E09342
:100B52007D00E2E0E0939B00E8E9E0939A00E6E0A2
:100B6200E0939D00E0E0E0939800E2E2E0939900D8
:100B7200E0E0E7B9E4E8E6B90895C1DFE0E0E09338
:100B82000005E0930105E0930C05E0930D05E09369
:100B92000205E0930305E0930405E0930505E09365
:100BA2000605E0930705E0930E05E0930F05E09339
:100BB2001005E0931105E0931205E0931305E0930D
:100BC2001405E0931505E0931605E0931705E093ED
:100BD2001805E0931905E0931A05E0931B05E093CD
:100BE2001C05E0931D05AA980E94B906AA9A0E94C4
:100BF20026010E9472010E94BF0108951A93AA2041
:100C020019F40E94D2010BC0E1E0EA1519F40E9426
:100C12002F0205C0E2E0EA1511F40E943902A39402
:100C2200E3E0AE1608F0AA24AA2011F410E00BC0EB
:100C3200E1E0EA1511F416E006C0E2E0EA1511F46B
:100C420017E001C018E0A12F0E944A0219910895ED
:100C52000E94F104E73040F00E94F406E093080598
:100C6200F0930905E1E00895A0910805B091090506
:100C72000E94F406EA1BFB0BED32A1E0FA0740F0FA
:100C82000E94F406E0930805F0930905E2E0089556
:100C9200DFCF00E072DF7894DBDF1E2F113019F412
:100CA2000E9413041AC01230C1F4003011F0E0E0C7
:100CB20001C0E1E00E2F003021F0E0916200E0641B
:100CC20003C0E0916200EF7BE093620097DF0E9435
:100CD2002F01E0930C05F0930D05DECFFFCF0E94AC
:100CE200EE000C94CF00D99A0E94CD00E0E0C899A2
:100CF200E1E008950E94CD00D9980C94CD00BA93FA
:100D0200AA931A930A9308950E94EE07DF01CB017A
:100D120008951A930A930E947002EA83FB836C83FC
:100D22007D830E946707A0E0B0E080EA90E4ECCF08
:100D3200E0E0F0E060E07BE40E943C080895EE838E
:100D4200FF83688779870895AE81BF8188859985F9
:100D52000895EA8BFB8B6C8B7D8BAA89BB898C896E
:100D62009D89E0E0F0E060E271E40E94EE07089500
:100D7200AAE0B0E00C94F906BA93AA93E881F9814B
:100D8200E381F0E00895E0931A05F0931B05309794
:100D92000895A0911C05B0911D050895BA93AA93D8
:100DA200A881B9811296E0E8EC9308950E94D308D5
:100DB200A881B9811396EC930895FA93EA93A5E07A
:100DC200B0E00C94F803FA93EA93A1E80C94490476
:100DD200F0E0EE0FFF1FAE0FBF1F0E94E208089562
:100DE200EA81FB81F0CFE0910A05F0910B050895AD
:100DF200109639F080EA9FE00197F1F7A8951197D4
:100E0200C9F70895552342F4503811F4E0FF04C0A5
:100E12003196691F791F6BF050E8572711F45F93E1
:100E2200CAC05F3F31F0660F000C57956795752F6A
:100E320008955F9300200AF0CAC0C3C050E8192E7B
:100E42001522880F991F9527550F879550E8072E71
:100E52000522660F771F7527550F679508956894C9
:100E620001C0E8945F93F2DF703818F07F3F08F416
:100E7200A2C056E1571BAAF4519558300EF45930CE
:100E820030F0EFEFFFEF6FEF7FE777F91AC07727C8
:100E92005523B9F0EE0FFF1F661F771F5A95D1F742
:100EA20010C07727583028F0EF2FF62F672F5850B1
:100EB200F9CF552331F076956795F795E7955A95D1
:100EC200D1F700200AF441D15F910895689401C0DE
:100ED200E894309760407040B1F0002426F0772308
:100EE20012F4009432D1172E7EE1112032F07A955D
:100EF200EE0FFF1F661F111CF9CFEF2FF62F612D8A
:100F02005F938ADF5F9108954F93AF01FD01DA018C
:100F1200AB01BC01CA01402D012C142E4F91089542
:100F2200EA0FFB1F681F0895E095F0956095EF5F4B
:100F3200FF4F6F4F08955F9381DF903849F150E87A
:100F42001526703821F1572F591B2BF112F4DCDFD3
:100F5200FACF583118F0AA27BB278827583028F033
:100F6200AB2FB82F88275850F9CF552329F08695F3
:100F7200B795A7955A95D9F7502D512572F0D0DF24
:100F820038F46795F795E795739513F420C0BCDFA5
:100F920043DF5F910895D8F7FBCFEA1BFB0B680B89
:100FA20051F010F40094C0DF662392F3EE0FFF1F9E
:100FB200661F7A95CBF7EE27FF27662777275F9183
:100FC2000895EFEFFFEF6FE77FEF5F910895EFEF87
:100FD200FFEF6FE77FE75F9108955F932FDF703830
:100FE20051F3903841F301240894791F23F41CF340
:100FF20000203AF3ECCF0F921F932F933F934F931E
:10100200112722279927689FA0018F9F302D410D1C
:10101200591F6B9F300D411D591F8E9F27D0BF9FB7
:1010220025D06A9F23D0BE9F1DD0AF9F1BD0AE9FFD
:10103200110D291F391F491F591FE32FF42F652F47
:10104200522F4F913F912F911F910F9066232AF0BB
:10105200550FEE1FFF1F661F02C073954BF2D2DEC3
:101062005F910895100D211D391F02C0200D311D01
:10107200491F591F08955F93E1DE703821F4112052
:101082000AF49FCFA4CF903809F495CF0124089495
:10109200970B1BF4D4F30020F3CF792F1F932F93D8
:1010A2003F934F9311241127222733274427552793
:1010B20090E2AE17BF078607410730F0AE1BBF0BA9
:1010C200860B410B089401C08894551F221F331FC1
:1010D200111CAA1FBB1F881F441F9A9551F7F901C3
:1010E200612D4F913F912F911F91662332F0550F41
:1010F200EE1FFF1F661F7A9543F284DE5F9108950B
:1011020099239AF0772342F0971748F029F4AE1703
:10111200BF07860720F031F0989488940895989438
:10112200089408951894889408957723C2F797171E
:1011320098F3A9F7EA17FB07680788F399F3ECCF4E
:10114200EA2BFB2B682B792B0895F095609570950F
:10115200E195FF4F6F4F7F4F0895EE230E2EEA2F3A
:1011620019F0EE0F0A94E9F70895EE230E2EEA2FF6
:1011720019F0E6950A94E9F70895EE230E2EFD0183
:1011820021F0F695E7950A94E1F70895EE230E2EE5
:10119200FD01BC0131F0EE0FFF1F661F771F0A949D
:1011A200D1F70895EF2FFF27E7FDFFEF08956E2F88
:1011B2007F2FE0E0F0E008956F2F660F660B762F29
:1011C2000895ED91FC9111970895182E862F612DA7
:1011D200192E972F712D1B2EBF2FF12D1A2EAE2FE8
:1011E200E12D08955A934A933A932A931A930A93B4
:1011F20008955D814C813B812A811981088108957E
:00000001FF
