:060000000C94A1000C9419
:1000060000000C9400000C9400000C9400000C946A
:1000160000000C9400000C9400000C9400000C945A
:1000260000000C94DD040C9400000C9400000C9469
:1000360000000C94D1040C9400000C9450040C9411
:1000460000000C9439080C946A080C946B080C9404
:1000560000000C9400000C9400000C9400000C941A
:1000660000000C9400000C9400000C9400000C940A
:1000760000000C9400000C9400000C9400000C94FA
:1000860000000C9400003F065B4F666D7D077F6F96
:10009600407640000F0000000F0000000F00000037
:1000A6000F0000000F0000000F0000000F0000000E
:1000B6000200000004000000070000000A00000023
:1000C6000F0000000A0000000100010001001900F5
:1000D6001900190019001900190019000A000A0070
:1000E6000A00010000000100000001000000B40049
:1000F60000007800000064000000500000003C0092
:1001060000001400000014000000010000000100BF
:100116000000010000001027E80364000A00010047
:10012600001000011000010001002D4E414E004953
:100136004E46000001002C062E010000F894EE2722
:10014600ECBBF1E0F5BFE5BFE0936C00F8E1F1BD73
:10015600E1BD8DE0A2E0BB27ED938A95E9F780E04B
:1001660090E1A0E0B1E0ED930197E9F7EAE3F1E071
:1001760085919591009761F0A591B591059015909F
:10018600BF01F00105900D920197E1F7FB01F0CF59
:100196008BBFEFEFEDBFE0E1EEBFC0E0D5E00C9422
:1001A600D4002AD00E94FD03A0E0BCE20E94B10761
:1001B6003DD0AA980E94DC11AA9A0E947E0E0E9447
:1001C600C80E0E94170F0E94A80CA4E6B0E00E9479
:1001D600D8147894E0910005E03061F0E0E0E09317
:1001E60000050E9411030E9477033FD00E948309F5
:1001F6000E94C307EFCFFFCFEFE9EABBE4E0EBBB1A
:10020600E7EFE7BBE0EEE8BBEFEFE4BBE4E0E5BB1E
:10021600E1E9E1BBE1E0E2BBE2E1E2B9E0ECE09377
:100226006100EFEFE0936400E0E144C00E94E0115A
:10023600E0916200E064E0936200E0916200E068B1
:10024600E0936200E0E0E0932A05E1E0E093150523
:10025600E0931605E0931705E0E0E09356050FD00E
:100266001CD01DD00E94F01108958FD0E3D0E091EC
:100276002805E03009F4FCD043D143D10895C69A4D
:100286000895C6980895909A089590980895949A16
:10029600089594980895C59A0895C5980895C7989D
:1002A6000895C79A0895E0916500E06103C0E09162
:1002B6006500EF7EE09365000895AA93A881A130BA
:1002C60021F4E0916500E86006C0E881E03029F499
:1002D600E0916500E77FE0936500DDC2E8E5F2E0C6
:1002E600E415F50534F4E3E00E94F411E0935405B7
:1002F6000AC0A0912A05A33031F40E940112139777
:1003060011F40E9409120895039B0FC0C8DFE0E0B4
:10031600E0932805E1E0F0E0E0932C05F0932D054D
:10032600E0932A05E093550515C0A0912805A13054
:1003360011F4B5DF01C0B5DFA0912A05A13051F453
:100346000E940112119731F4E0E0F0E0E0932C05F1
:10035600F0932D050895A4E00E94490B0E94101207
:1003660034F0E2E00E94F411E09353050DC00E94C0
:10037600101254F4A0912A05A23031F40E94011201
:10038600139711F40E940912089581994BC0E091C8
:100396000505EF5FE0930505E150A0910505A63040
:1003A60008F43FC0E5E0E0930505E0912805E0305C
:1003B600C1F5E0912A05E03059F5E0910F05E030EE
:1003C60031F5E1E0E0930F05A0912605A63039F45A
:1003D600EBE0E0932B05E1E0E093280516C0A09141
:1003E6002605A730A1F4ECE0E0932B05E0912A0561
:1003F600E03021F4E1E0E093280507C0A0912A054A
:10040600A43029F4E0E0E0932805E093210509C033
:100416000E941812A0912A05A43019F4E0E0E09396
:100426002A0507C0E0E0E0930505E0930F050E946A
:1004360018120895A0912205A03081F4A0912305F9
:10044600A03061F4A0911F05A03041F4A0912005D1
:10045600A03021F4A0912105A03021F0A0912A0519
:10046600A03029F0E0E0E0932805E09357050895D1
:10047600B09940C0E0910805EF5FE0930805A091B0
:100486000805A83C20F4A0911205A03009F002C08E
:10049600E1E011C0A0910805A83C20F0A09112054A
:1004A600A13009F00AC0E0912105E03031F4E8EC12
:1004B600E0930805E2E0E0931205A0910805A83C48
:1004C60020F0A0911205A23009F013C0E3E0E093FA
:1004D6001205E1E0E0935205A0911705A13011F451
:1004E600E2E005C0A0911705A23019F4E1E0E0931F
:1004F600170505C0E0E0E0930805E09312050895AE
:100506000895A0912805A130F1F5A0912B05A13001
:10051600A1F0A0912B05A23081F0A0912B05A3306C
:1005260061F0A0912B05A43041F0A0912B05A530D8
:1005360021F0A0912B05A63021F4E0911D05E0687D
:100546001FC0A0912B05A73061F0A0912B05A83004
:1005560041F0A0912B05A93021F0A0912B05AA30DE
:1005660021F4E0911D05E0640BC0A0912B05AB3092
:1005760021F0A0912B05AC3029F4E0911D05E06235
:10058600E0931D0506C0E0912805E03011F40E94B5
:10059600E011A0912405A13021F40E941E12E77FEC
:1005A60012C0A0912405A23039F4E0911D05E06146
:1005B6000E942612E77F07C0A0912405A33029F4E4
:1005C6000E941E12E860E0931D05A0912505A43047
:1005D60039F4E0911D05E4600E942612ED7F0AC001
:1005E600A0912505A53041F4E0911D05EB7F0E9401
:1005F6002612E260E0931D05A0912605A63021F49F
:10060600E0911D05EE7F07C0A0912605A73029F4CD
:10061600E0911D05E160E0931D050895E0915F05F9
:10062600E07CE0935F05A0915805AF5FA093580565
:10063600AA3009F00895E0E0E0935805E0915F05DF
:10064600E160E0935F05E0915905EF5FE09359059E
:10065600E53009F00895E0E0E0935905E0915F0583
:10066600E260E0935F05E0915A05EF5FE0935A057B
:10067600E23009F00895E0E0E0935A05E0915F0565
:10068600E460E0935F05E0915B05EF5FE0935B0557
:10069600EC3309F00895E0E0E0935B05E0915F0537
:1006A600E860E0935F05E0915C05EF5FE0935C0531
:1006B600EA3009F00895E0E0E0935C05E0915F051B
:1006C600E061E0935F05E0915D05EF5FE0935D0516
:1006D600E63009F00895E0E0E0935D05E0915F05FE
:1006E600E062E0935F0508950E94E608E0915F05E9
:1006F600E470E0915F05E17011F00E94960BE091C5
:100706005F05E27009F475C0E1E0E0936705A0912A
:100716002805A130A9F4A0912105A13081F4A0916A
:100726006205A23038F0E2E0E0936205E1E0E09392
:10073600660505C0E0916205EF5FE093620505C0BE
:10074600E0E0E0936205E0936605A0912805A130FC
:10075600A1F4E0915605E03029F4E1E00E942B1265
:10076600EF7708C0A0915605A13031F4E0E00E9471
:100776002B12E068E093620006C0E0E00E942B12B4
:10078600E068E09362000E943012119721F4E09134
:100796006200EF7B2CC0E0912C05F0912D0530977F
:1007A60019F10E9430121397C1F4E0916105E0300F
:1007B60039F4E1E0E0936105E0916200EF7B0AC065
:1007C600A0916105A13041F4E0E0E0936105E0917C
:1007D6006200E064E09362000CC00E94301212973F
:1007E60041F4E0E0E0936105E0916200E064E093AB
:1007F60062000895E5E4E7BFE4E0E3BFE6EEE2BFAA
:10080600E0E0EFBDE3E0EEBDEBE3F6EFFDBDECBDF2
:10081600E4E0E5BDEBEEE4BD0E943512EAE3E093C9
:100826008400E0E0F0E00895AA93E881E13019F44D
:100836000E94451230C0E23031F40E943512ECE0DD
:10084600E093840028C0E33031F40E943512EEE1D3
:10085600E093840020C0E43031F40E943512ECE2CB
:10086600E093840018C0E53031F40E943512E1E3CC
:10087600E093840010C0E63019F40E9445120BC0C4
:10088600E73019F40E94451206C0E83021F4E2E090
:10089600E0938B001C98219608950E944A12E6EE7A
:1008A600E2BFE0912805E03011F40E94DC05E091FA
:1008B6005005E030A1F4E0915105E03081F4E0917B
:1008C6005205E03061F4E0915305E03041F4E091E7
:1008D6005405E03021F4E0915505E030E1F0E09177
:1008E6006305F0916405A0916005B0E0EA17FB0787
:1008F60060F4E0E0E0936005E0916505E03021F00A
:10090600E8B3A0E1EA27E8BB05C0E0916005EF5F28
:10091600E093600542C0E0914B05E03081F4E09140
:100926004C05E03061F4E0914D05E03041F4E09192
:100936004E05E03021F4E0914F05E03071F1E09191
:100946004B05E03021F4E0914D05E03019F0ECE084
:10095600F0E011C0E0914C05E03021F4E0914E0545
:10096600E03019F0EFE0F0E006C0E0914F05E0302E
:1009760019F0E4E1F0E06F01F50131965F01EC1545
:10098600FD0510F0AA24BB24F601F695E795AE16F0
:10099600BF0610F4C49A01C0C49811C0EA93FA9332
:1009A600EBE3F6EFFDBDECBDE1E0E0930005F99168
:1009B600E99118950E944A12EBEEE4BDB7D0E99191
:1009C600EFBFF991E991B991A9919991899179919D
:1009D6006991F990199009901895AA931A930A9318
:1009E60010E0183080F40E94581221F0E091650062
:1009F600E46003C0E0916500EB7FE0936500AF9A89
:100A0600AF981F5FEECF1981088123960895AA93A8
:100A1600A881E3DFE981E03019F4AC9AAC980BC009
:100A2600A981A13019F4AD9AAD9805C0A981A2306B
:100A360011F4DF9ADF98229608951A930A930E947A
:100A460061120E94681218F00E946D1201C000E047
:100A560000936A050E9461120E94731211F400301D
:100A660019F00E947C1201C000E000936B050E9401
:100A76008512049000926C05E8EEF3E0E415F505A6
:100A86006CF4E6E9F0E0049000926D05E7E9F0E029
:100A9600049000926E05E8E9F0E021C0D201E8EE8C
:100AA600F3E00E94681218F00E946D1201C000E087
:100AB60000936D05D201EAE0F0E00E944A17DF01DB
:100AC600E4E6F0E00E94731211F4003019F00E947F
:100AD6007C1201C000E000936E050E94851204900E
:100AE60000926F050E948D120E94681218F00E94F3
:100AF6006D1201C000E0009370050E948D120E94E5
:100B0600731211F4003019F00E947C1201C000E04B
:100B1600009371050E948512049000927205E0917F
:100B26001D05E0936905099119910895E0916805FD
:100B3600E03029F482DF0E949412AE9A01C0AE988A
:100B4600E0E0EA93E0916805F0E0E759FA4FA0810A
:100B56005EDFE0916805E03031F40E949412E2E035
:100B6600EA93A2E017C0A0916805A13031F40E9473
:100B76009412E2E0EA93A1E00DC0E1E0EA93E0918D
:100B86006805E250A0E80E94F816AE2F40DFE2E0CA
:100B9600EA93A0E03CDFE0916805EF5FE09368052B
:100BA600A0916805AA3018F0E0E0E0936805AE9AD7
:100BB60008950E949912E0937705F0937805E0E096
:100BC600E0937505E0937605A0917505B0917605DD
:100BD600139709F0E5C00E949E12E130A0E0FA07E3
:100BE60009F066C0A0912405A130E9F4A09115058D
:100BF600A13059F40E94A61235970E94AB120E94AA
:100C0600B01214F00E94B7120DC0A0911505A230C3
:100C160049F4AEE2B5E00E94BA120E94B01214F096
:100C26000E94B71241C0A0912405A230E9F4A09118
:100C36001505A13059F40E94C01235970E94C512BD
:100C46000E94CA1214F00E94D1120DC0A09115057F
:100C5600A23049F4A0E3B5E00E94BA120E94CA127B
:100C660014F00E94D11220C0A0912405A330F9F4FB
:100C7600A0911505A13059F40E94D41235970E940F
:100C8600D9120E94DE1214F00E94E5120DC0A09146
:100C96001505A23049F4A2E3B5E00E94BA120E94FB
:100CA600DE1214F00E94E512E1E0E093510578C0EF
:100CB6000E949E12E230A0E0FA0709F071C0A091EE
:100CC6002405A13009F5A0911505A13069F40E940B
:100CD600A61235960E94AB120E94E81224F0E0E9B3
:100CE600F1E00E94AB120FC0A0911505A23059F495
:100CF600AEE2B5E00E94F0120E94E81224F0E0E9AC
:100D0600F1E00E94AB1249C0A0912405A23009F57A
:100D1600A0911505A13069F40E94C01235960E9473
:100D2600C5120E94F61224F0E6EEF0E00E94C5120B
:100D36000FC0A0911505A23059F4A0E3B5E00E94BA
:100D4600F0120E94F61224F0E6EEF0E00E94C512C0
:100D560024C0A0912405A33019F5A0911505A13052
:100D660069F40E94D41235960E94D9120E94FE128E
:100D760024F0E4EBF0E00E94D9120FC0A091150513
:100D8600A23059F4A2E3B5E00E94F0120E94FE12CE
:100D960024F0E4EBF0E00E94D912E1E0E093500584
:100DA6000E940613E0937905F0937A05E1B1E076A7
:100DB600E295EF70E695F0E0E0937B05F0937C0515
:100DC600A0917B05B0917C05139761F50E940B13EA
:100DD600E130A0E0FA0769F4A4E3B5E00E94BA1294
:100DE600A0913505AA2312F40E941313E1E0E093C3
:100DF60051050E940B13E230A0E0FA0799F4A4E330
:100E0600B5E00E94F012A0913405B0913505159712
:100E160034F0E4E0F0E0E0933405F0933505E1E0EA
:100E2600E09350050E941A13E0937D05F0937E052A
:100E3600E9B3E076E295EF70E695F0E0E0937F05A2
:100E4600F0938005A0917F05B0918005139709F076
:100E560084C00E941F13E130A0E0FA07D1F5A091EB
:100E66002605A630C1F4A0911705A13031F40E94E1
:100E7600271314F00E9437130DC0A0911705A23056
:100E860049F4A8E3B5E00E94BA120E943E1314F09A
:100E96000E9437131BC0A0912605A730D1F4A0915C
:100EA6001705A13031F40E94271314F00E9437135E
:100EB6000DC0A0911705A23049F4A8E3B5E00E9441
:100EC600BA120E943E1314F00E943713E1E0E09339
:100ED60051050E941F13E230A0E0FA07F1F5A09138
:100EE6002605A630D9F4A0911705A13031F40E9449
:100EF600451314F00E94541310C0A0911705A23098
:100F060061F4A8E3B5E00E94F012A0913805B09113
:100F16003905549714F00E9454131CC0A09126055D
:100F2600A730D9F4A0911705A13031F40E944513DA
:100F360014F00E9454130EC0A0911705A23051F46C
:100F4600A8E3B5E00E94F0120E945B13549714F0D8
:100F56000E945413E1E0E09350050895BA93AA93D2
:100F66001A930A93AA81BB81D7D08F01E0E0E09360
:100F7600900009B9EBB9E8EDEAB9E0E0F0E01FC18D
:100F86000E94B717A091B305AA3038F1E0E0E093CC
:100F9600B305EAE5E093490530E010E01E3290F42F
:100FA600A12FB0E0AF57BA4FE12FF0E0E45EFA4F61
:100FB600E081EC93E12FF0E0E45EFA4FE0813E271A
:100FC6001F5FECCF3093AF05EFE20E946013E1E0C4
:100FD600E093B4050E94661305C0E091B305EF5F88
:100FE600E093B305E091E905E03019F40E94BE17DD
:100FF600E8C0E0E0E093B305A091E705A13070F109
:10100600E093E705E093E90500E010E01E3240F4C6
:10101600E12FF0E0EB54FA4FE0810E271F5FF6CF89
:10102600E091E305E01721F4A091E205AA3509F065
:101036000FC014E21D3260F4A12FB0E0A45EBA4FD7
:10104600E12FF0E0EB54FA4FE081EC931F5FF2CF13
:10105600E0E0E093E505E093E60505C0E091E705ED
:10106600EF5FE093E7050E94BE17ABC0AA93BA9361
:10107600EA93FA93EFB7EA93E091B405E03039F0DA
:10108600ECB1E093E805E0E0E093E50519C0E091F6
:10109600E505EF5FE093E505E150F0E0EB54FA4F2C
:1010A600DF01ECB1EC93A091E505A03318F0E0E088
:1010B600E093E505E0E0E093E705E1E0E093E9058C
:1010C600E991EFBFF991E991B991A9911895189510
:1010D600AA93EA93FA93EFB7EA93E091B205A09147
:1010E600B105EA1769F00E946613A091B205AF3206
:1010F60030F0E0E00E946013E0E0E093B40506C043
:10110600E0E00E946013E0E0E093B405E991EFBFF0
:10111600F991E991A9911895BA93AA931A930A930A
:10112600EA81FB81E036A9E0FA0719F400EA11E04A
:1011360045C0E03CA2E1FA0719F40FEC10E03EC00E
:10114600E038A5E2FA0719F407E610E037C0E03404
:10115600A8E3FA0719F404E410E030C0E030ABE489
:10116600FA0719F403E310E029C0E038A0E7FA070C
:1011760019F402E210E022C0E030A6E9FA0719F4F9
:1011860009E110E01BC0E030A1EEFA0719F400E116
:1011960010E014C0E030ACE2FA0719F40CE010E0FD
:1011A6000DC0E030A2ECFA0719F408E010E006C022
:1011B600E039A0EDFA0711F403E010E0F801198117
:1011C600088124960895E091EB05E03031F0E09136
:1011D600EB05E150E093EB054EC0E091EC05F09194
:1011E600ED05309749F0ACEEB5E00E94BA12C4980E
:1011F600E0E0E09365053FC0E0915505E03031F051
:10120600E091EA05E25F0E94721335C0E091530552
:10121600E03031F0E091EA05E05F0E9472132BC0E6
:10122600E0915405E03031F0E091EA05EE5E0E946F
:10123600721321C0E0915005E03031F0E091EA05EB
:10124600EC5E0E94721317C0E0915105E03031F058
:10125600E091EA05EA5E0E9472130DC0E091520524
:10126600E03031F0E091EA05E85E0E94721303C0B7
:10127600E1E0E093EE05E0E0F0E00895A091EE05F0
:10128600A73218F0E7E2E093EE05E091EE05AAE951
:10129600B0E00E947613E0936305F0936405E09155
:1012A600EE05F0E0E253FF4F04900092EB05E0916B
:1012B600EE05A8EEB0E00E947613E093EC05F093FD
:1012C600ED05E091EB05E03089F4E0E0E093EA0516
:1012D600E0935505E0935305E0935405E0935005DC
:1012E600E0935105E0935205C49807C0E091EA05E2
:1012F600EF5FE093EA05C49AE1E0E093650508959F
:1013060075D0A0912805A13091F5E0912B05E1302B
:1013160011F481D02BC0E23011F481D027C0E33024
:1013260011F481D023C0E43011F481D01FC0E53020
:1013360011F481D01BC0E63011F481D017C0E7301C
:1013460011F481D013C0E83011F480D00FC0E93019
:1013560011F47FD00BC0EA3011F481D007C0EB3016
:1013660011F485D003C0EC3009F461D105C0E091D9
:101376002805E03009F469D108951A93E091EF0544
:10138600E03019F40E942A0F0DC0A091EF05A1309C
:1013960019F40E94700F06C0A091EF05A23011F457
:1013A6000E948E0FE091EF05EF5FE093EF05A091AD
:1013B600EF05A33018F0E0E0E093EF05E091EF05CC
:1013C600E03011F410E00DC0A091EF05A13011F44A
:1013D60016E007C0A091EF05A23011F417E001C096
:1013E60018E0A12F0E94BD0F199108950E94870150
:1013F6000E94AE010E947101A0916705A13051F4CF
:10140600E0E0E09367050E94870EE0937305F09392
:101416007405B3DF08950E947E13A1E01DC00E94EB
:101426007E13A2E019C00E947E13A3E015C00E949D
:101436008A13A1E011C00E948A13A2E00DC00E9487
:101446008A13A3E009C00E94961305C00E94961352
:1014560008C00E94A213A4E00E94170408950E94E7
:10146600A213A5E00E9417040E945A0108950E9443
:10147600AE13A6E00E9417040E94B31308956C975A
:10148600E0E0EC8BED8BEE8BEF8BE88FE98FEA8F4C
:10149600EB8F1A930A930E94BA130E94BF13A0E01F
:1014A600B0E088E292E40E94A5157F936F93FF93C4
:1014B600EF93F2010E94BF13DF01CB010E94C41318
:1014C6000E944316AF91BF918F919F910E94C913BD
:1014D600EA8FFB8F6C8F7D8F0E94CE13AAE0B7ED4B
:1014E60083EA9CE30E94F5150E94D3130E94CE1353
:1014F6000E94D8130E94A5150E94E113AA8DBB8DE8
:101506008C8D9D8D0E94AA1784F00E94D813E0E06E
:10151600F0E060E070E40E94EA13E0E0F0E060E4EE
:1015260070E40E9443160E94E113EBEAFAEA66E2CF
:1015360075E40E94EF130E94D8130E94881609F0E2
:1015460008F403C00E94F4130DC00E94F4130E9415
:10155600FF140E94D8130E94881660F40E94F413A8
:101566000E94FF14E093F005F093F1056093F205F5
:101576007093F305E091F005F091F1056091F205A5
:101586007091F305AFE8B2EC85EF9CE30E94F51588
:101596000E94F913A091F405B091F5058091F60526
:1015A6009091F7050E94CE130E949E15EE8BFF8B3D
:1015B600688F798FAFE6B2E183E89AE30E94FE1363
:1015C6000E94CE13E093F405F093F5056093F605BB
:1015D6007093F705EE85FF85688979890E94051461
:1015E6000E94A5150E940A140E940F140E94161448
:1015F6000E9434158F01112312F400E010E00E94BE
:101606001B14D8010E9424170E9492170E94881664
:1016160009F008F405C00E941B140E9434158F01BE
:10162600D8010E94CC0E198108816E9608950E94F9
:10163600AE13A7E00E941704DC9A0E94B313A09190
:101646006605A13009F41BDF0895A8E00E9417047F
:101656000E94F0110E945601A1E00E946001DC98F0
:10166600A0E0B0E00E94CC0EE0E0E0934B05E093F2
:101676004C05E0934D05E0934E05E093F005E093AD
:10168600F105E093F205E093F3050895AA93E88146
:10169600E7B9E5E8E6B9369A349BFECFE881E03053
:1016A60041F4E4B1F5B1F695E795E093FA05F093C8
:1016B600FB05A881A13041F4E4B1F5B1F695E795B3
:1016C600E093FC05F093FD05A881A43099F4E4B1FC
:1016D600F5B1E0931A05F0931B05A0911A05B09198
:1016E6001B05E2E0F0E00E944A173196E0931A05E6
:1016F600F0931B05A881A23099F4E4B1F5B1E0930B
:101706001805F0931905A0911805B0911905E2E0A6
:10171600F0E00E944A173196E0931805F0931905F8
:1017260036980C942E102A970E94B51711E017319F
:1017360070F4E12FF0E0E250FA4FFF93EF93A12F00
:10174600BB27C3D1AF91BF91EC931F5FF0CFA091A0
:101756002405E091FF05EA1741F0E1E0F0E0FA9395
:10176600EA93A09124050E942714A0912505E091F3
:101776000006EA1741F0E2E0F0E0FA93EA93A0915E
:1017860025050E942714A0912605E0910106EA1777
:1017960041F0E3E0F0E0FA93EA93A09126050E9477
:1017A6002714209102063327B22FA0E0E09103060A
:1017B600F0E0EA0FFB1FA0912E05B0912F05EA1766
:1017C600FB0781F0E4E0F0E0FA93EA930E94A612A8
:1017D6000E942C14E5E0F0E0FA93EA93A0912E051E
:1017E6000E942714409104065527B42FA0E0E091EB
:1017F6000506F0E0EA0FFB1FA0913005B091310518
:10180600EA17FB0781F0E6E0F0E0FA93EA930E941C
:10181600C0120E942C14E7E0F0E0FA93EA93A0913C
:1018260030050E942714E0910606F0E0EE87FF8758
:10183600FE850E943014A0913205B0913305EA1757
:10184600FB0781F0E8E0F0E0FA93EA930E94D412F5
:101856000E942C14E9E0F0E0FA93EA93A091320595
:101866000E942714E0910806F0E0EC87FD87FC85CE
:101876000E943814A0913405B0913505EA17FB078C
:1018860081F0EAE0F0E0FA93EA930E94BA130E942C
:101896002C14EBE0F0E0FA93EA93A09134050E9451
:1018A6002714E0910A06F0E0EA87FB87FA850E9492
:1018B6004014A0913605B0913705EA17FB0791F061
:1018C600ECE0F0E0FA93EA93E0913605F091370503
:1018D6000E942C14EDE0F0E0FA93EA93A09136050D
:1018E6000E942714E0910C06F0E0E887F987F88556
:1018F6000E9448140E945B13EA17FB0741F0EEE0D2
:10190600F0E00E945014EFE0F0E00E945714E091DE
:101916000E06F0E0EE83FF83FE81E0E0DF01E0915A
:101926000F06F0E0EA0FFB1F0E945B13EA17FB07A6
:1019360041F0E0E1F0E00E945014E1E1F0E00E94A5
:1019460057140E94BC17609608951A930A9301E0F3
:1019560010E00731E0E01E0768F4F801E250FA4FA4
:10196600FF93EF93D801B1D0AF91BF91EC930F5F86
:101976001F4FEFCFA0911306A13421F4A0911406B6
:10198600AB3481F101E010E00731E0E01E0768F4B6
:10199600F801E250FA4FFF93EF93D80196D0AF913A
:1019A600BF91EC930F5F1F4FEFCFA0911306A134A9
:1019B60021F4A0911406AB34A9F09FD0B8D001E071
:1019C60010E00731E0E01E0768F4F801E250FA4F34
:1019D600FF93EF93D80179D0AF91BF91EC930F5F4E
:1019E6001F4FEFCFE091FF05E0932405E09100063D
:1019F600E0932505E0910106E0932605AEE2B5E009
:101A0600E0910206F0E0ED93FC93F0912E05E0E004
:101A1600DF01E0910306F0E0EA0FFB1F0E94AB1224
:101A2600A0E3B5E0E0910406F0E0ED93FC93F091BD
:101A36003005E0E0DF01E0910506F0E0EA0FFB1F6C
:101A46000E94C512A2E3B5E0E0910606F0E0ED9330
:101A5600FC93F09132050E9430140E94D912A4E33F
:101A6600B5E0E0910806F0E0ED93FC93F0913405C3
:101A76000E943814E0933405F0933505A6E3B5E0EB
:101A8600E0910A06F0E0ED93FC93F09136050E9492
:101A96004014E0933605F0933705A8E3B5E0E091EE
:101AA6000C06F0E0ED93FC93F09138050E94481483
:101AB600E0933805F0933905ABC0AA93E881E1506D
:101AC600E883EF5FD9F70C942E10BA93AA93E199A5
:101AD600FECFE881F981FFBBEEBBE09AEDB30C9433
:101AE600E10FAA93E199FECFE981FA81FFBBEEBB34
:101AF600E881EDBBE29AE19AE0C0E1E0E0932405DB
:101B0600E4E0E0932505E7E0E09326050E94B7129E
:101B16000E94D1120E94E5120E941313E0E0F0E049
:101B2600E0933605F09337050E94371308951A930C
:101B36000A93E0912405E0931606E0912505E093CB
:101B46001706E0912605E09318060E94A6120E9449
:101B56001517E0931906E0912E05E0931A060E94E8
:101B6600C0120E941517E0931B06E0913005E09322
:101B76001C060E94D4120E941517E0931D06E091E0
:101B86003205E0931E060E94BA130E941517E093D1
:101B96001F06E0913405E0932006E0913605F091AA
:101BA60037050E941517E0932106E0913605E0936C
:101BB6002206E0913805F09139050E941517E09349
:101BC6002306E0913805E0932406EFEFE09325061F
:101BD600E0932606E0932706E0932806E09329067D
:101BE600E1E4E0932A06EBE4E0932B0601E010E043
:101BF6000731E0E01E0760F41A930A93A5E1B6E008
:101C0600A00FB11FAC910E9427140F5F1F4FF0CF9A
:101C1600099119910895AA93A981BA81A030E1E0AA
:101C2600BE0718F0EFEF0C94761025D0EB81EE7F0F
:101C3600AE2F0E945C14E981AE2F0E945C14A8812D
:101C46000E945C141FD003D0E0E00C9476100000D4
:101C560008951A93D89AD0980E9460141E2FF7DF21
:101C6600D998D09AF4DF103019F0EFEF0C942710C2
:101C7600E0E00C942710D89AD99AE9DFD8980E9408
:101C860067140895D998D898E2DFD99AE0DFD89AF0
:101C96000895AA931A930A9310E0183060F40E94EC
:101CA600581211F0D89A01C0D898D1DFD99A0E945B
:101CB60067141F5FF2CF19810881239608950E9449
:101CC600B71710E030E0D89AD09810E0183068F4D2
:101CD6000E9460140E2FE7E0E11BA02F0E94F01671
:101CE6003E2B0E9467141F5FF1CFD09AE32F0E940C
:101CF600BE170C947610E0E9EA93E1E0F0E0FA937F
:101D0600EA93A0E088DF08950E94B517B4DFA0E942
:101D16000E945C14A0E00E945C14ADDFA1E90E9461
:101D26005C14CDDF3E2F95DFCADF2E2F92DFAADFB0
:101D3600E32FF0E0EE0FFF1FEE7FF170DF01E22FE1
:101D4600EE1FE0E0EE1FE170F0E0EA2BFB2B8F01C7
:101D56000B3FE0E01E0718F040E050E00CC0F80131
:101D6600662777270E946B15A0E0B0E080E09FE32E
:101D76000E946C14AF014739E0E05E0714F046E9B3
:101D860050E0FA010E94BC174DC0A0E0B0E01ED0A2
:101D96000895BA93AA9324971A930A93EE81FF8122
:101DA6000E94BF13A0E0B0EF8FE795E40E94EA130C
:101DB600E0E0F0E068EC72E40E9443160E943215FF
:101DC6008F01D80103D0198108812EC1BA93AA9335
:101DD6000E94B717DB9AD99ADA9800E010E00C3027
:101DE600E0E01E07C4F4E02FA0E0B8E00E94001770
:101DF600AC81BD81EA23FB239F01022E032A11F049
:101E0600D89A01C0D8980E946714D99A0E942A0EBF
:101E16000F5F1F4FE4CFDA9ADB980E942A0EDB9AF7
:101E26000E94BE1726960895E5E5EDB9E0E0EEB905
:101E3600AFD0FCD0E0E0EA93A5E0B1D0E2E0EA93CF
:101E4600A8E2ADD0E3E0EA93A3E0A9D008952897ED
:101E56000E9471140E9476140E947D140E948414BC
:101E66000E9489140E948E140E94881620F00E94F7
:101E760093140E948414E0917305F09174050E94F6
:101E8600BF13A0E0B0E088EC92E40E94C913AFE86B
:101E9600B2EC85E79CE30E94F5150E9489140E9426
:101EA600C9130E949B14E3EEF5EA6BE97CE30E94FA
:101EB6004316A0E0B0E080E291E40E946C148F012A
:101EC6000D3DE5E01E0714F00CED15E0112312F4AC
:101ED60000E010E028010C94F41064970E9471143D
:101EE6000E9476140E947D140E949D140E94AC14D8
:101EF600E3E7FEE369E378E40E94EA130E94A8168A
:101F06000E949B14E0E0F0E068E471E40E946C1427
:101F16008F0138012BC064970E9471140E947614B9
:101F26000E947D140E949D140E94AC14EFE6F2E11B
:101F360063E87AE30E94EA13E3EBFCE06EE076E402
:101F46000E944316DF01CB010E94A816A0E0B0E074
:101F56008AE794E40E94F5150E949B14E0E0F0E005
:101F66006AE774E40E946C148F01480119810881A4
:101F760066960895AA93A998E0E0EA93E981E77046
:101F8600EE0FEE0FEE0FE560AE2F09D0A99A63C0F3
:101F9600A998A6E15BD0A99A0E94DC110895AA939C
:101FA600A998E981EF70E064AE2F50D0A0E04ED042
:101FB600A8814CD085E38A95F1F7A99A22960895CF
:101FC60024970E94B717A998A2E140D036D01E2FB9
:101FD60034D00E2F32D03E2FE12FFF2766277727EA
:101FE6000E941A177F936F93FF93EF93A02FBB273F
:101FF60088279927E8E00E940917AF91BF918F9132
:102006009F910E94DF16DF01CB01E32FFF27662792
:1020160077270E94DF16EC83FD836E837F83A99A60
:102026000E94BD140E94BE1728960895A99AA6E09C
:102036000DD00E94DC11A99808951A93E0E0EFB93B
:10204600779BFECF1FB1E12F19910895AA93E881DE
:10205600EFB9779BFECF219608950E948B177B815F
:102066006A81F981E88177FB770F67FD7160972FA9
:102076009E5781F078F0983190F4AA27BB278827DD
:1020860008948795B795A7959A95D1F7EA23FB23E8
:10209600682305C0E8947727EE27FF2766276F7722
:1020A600769508F4606877F9A991B9918991999123
:1020B600EA17FB076807790797FB08950E948B17B5
:1020C6000E947C170E9430100E94811719F40E940A
:1020D600C21409C0E6F70E94C214A0E0B0E080E88E
:1020E6009FE30E949E15249608950E948B172497BD
:1020F6001A930A930E9489140E94AA172CF0EFEFF4
:10210600FFEF6FE77FEF6DC00E9416140E948617DF
:10211600ADB7BEB711971F930F930E94E2140F91AC
:102126001F910E949B14E3EFF4E065E37FE30E94B6
:10213600881630F40E94C5140E940F1401501040F6
:102146000E9493147F936F93FF93EF930E9416144C
:10215600A0E0B0E080E89FE30E94A515AF91BF9193
:102166008F919F910E9443160E9484140E94C51469
:102176000E94F5150E94EF13A6E2B2E485E69FE3FE
:102186000E94EA13EEE4F1E164E570E40E94C913EB
:102196000E9489140E94F5157F936F93FF93EF9326
:1021A6000E94F413ADE4B1E184ED9FE30E949E1515
:1021B600AF91BF918F919F910E9443167F936F932A
:1021C600FF93EF93F8010E94BF13A8E1B2E781E302
:1021D6009FE30E94F515AF91BF918F919F910E9449
:1021E600A515198108812A9608950E948B172897AC
:1021F6001A930A930E940A14E0E5FCEA6EEA72EC6E
:102206000E94881618F40E94C7147FC0EA85FB85D1
:102216006C857D850E94A21719F40E948E1475C0E4
:102226000E940A14E8E1F2E761EB72E40E94881664
:1022360009F008F405C0EFEFFFEF6FE77FE765C031
:102246000E940A14EBE3FAEA68EB7FE30E94FE13AE
:102256000E940A1433DF0E9434158F010E940A146B
:102266000E94BF130E94C913DF01CB01E0E0F0E03A
:1022760060E07FE30E94C9130E9484140E94C51483
:102286000E94F5150E94EF13ADE6BCE48CE69DE3D3
:102296000E94F515A6EAB3EE86EE90E40E94A51517
:1022A6000E9489140E94F5150E9484140E94F4135A
:1022B600A8E2BDE886EA91E40E94A515EA83FB83BD
:1022C6006C837D830E941614AA81BB818C819D81BB
:1022D6000E94A515A3EFB4E085EB9FE30E94F515D8
:1022E6007F936F93FF93EF930E9489140E94F413D8
:1022F6000E949E15AF91BF918F919F910E944316A8
:102306000E948617D8010E94F314198108812E961F
:1023160008950E948B1724970E94CC140E94A2173E
:1023260019F40E94C71443C0A885B9858A859B8580
:102336000E94AA1784F40E94BD140E94A21719F4E1
:102346000E948E1434C0A885B9858A859B850E9413
:10235600D1144BDF2CC00E94BD14DE010E9434153F
:102366000E946E170E94C2140E946B15DF01CB01FA
:102376000E94BD140E94B01719F00E94C71417C01E
:102386000E94CC140E94FF14DF01CB010E94D114DD
:102396002CDFE887F9876A877B87E881E17019F483
:1023A6000E94CC1404C00E94CC140E94FF142C96E8
:1023B6000895AAE0B0E00C94D814E0911D05EF77DB
:1023C600E0931D05E0911D05EF7BE0931D05E0916F
:1023D6001D05EF7DE0931D0508950E9446010C94AE
:1023E6004A01E0932A05E0E0E0932805E3E0F0E007
:1023F600E0932C05F0932D05E1E00895E0E0E093ED
:102406002A05A0912C05B0912D050895E2E0F0E093
:10241600E0932C05F0932D050895A0911A05B0912F
:102426001B05A83CE0E0BE070895E0E0E093210527
:10243600E0934F050895E0911D05EF7EE0931D059D
:10244600E0911D050895E0931D05E0911D05089591
:10245600E0935605E09162000895A0912C05B09195
:102466002D050895E2E3E0938B00EAE1E0938A000C
:10247600E0E0E0938100ECE3E0938000E0E0E093AD
:1024860085000895E2E0E0938B001C9A08950A9275
:102496001A92FA926A937A938A939A93AA93BA9320
:1024A600EA93FA93EFB7EA930895E12FA0E80E9422
:1024B600F816AA81EA230E2F00300895A091380558
:1024C600B0913905E4E6F0E008950E944A171E2F00
:1024D60011300895E12FF0E0E457FF4F049108957D
:1024E6000E9452171E2FA12FEAE00E942917E03002
:1024F6000895A12FEAE00E942917F0E0E457FF4F64
:1025060004910895A12FEAE00E944F17F0E0E457E6
:10251600FF4F0895A0913405B0913505E4E6F0E04B
:102526000895E1E0EA93A0E00C940A05E0917505B0
:10253600F09176050895A0917705B0917805F6DFBC
:10254600EA1BFB0B0895E0912E05F0912F050895E7
:10255600E0932E05F0932F050895A0912E05B091D6
:102566002F050E94A6170895E0E0F0E0F1CFED9167
:10257600FD913197FE93EE930895E0913005F09129
:1025860031050895E0933005F09331050895A09143
:102596003005B09131050E94A6170895E0E0F0E0FD
:1025A600F1CFE0913205F09133050895E0933205BD
:1025B600F09333050895A0913205B09133050E943A
:1025C600A6170895E0E0F0E0F1CFA0912E05B091B6
:1025D6002F05A039E1E0BE070895ED91FD913196F2
:1025E600FE93EE930895A0913005B0913105A63E75
:1025F600E0E0BE070895A0913205B0913305A43BF3
:10260600E0E0BE070895E0917B05F0917C05089512
:10261600A0917905B0917A05F6DFEA1BFB0B0895C8
:10262600E0E0F0E0E0933405F09335050895E0919D
:102636007F05F09180050895A0917D05B0917E05F6
:10264600F6DFEA1BFB0B0895E0913805F09139059A
:102656003597E0933805F0933905A0913805B09188
:1026660039050E94A6170895E0E0F0E0E0933805EA
:10267600F09339050895A0913805B09139050E9467
:10268600A6170895E0913805F09139053596E0933F
:102696003805F0933905A0913805B091390554975E
:1026A6000895E4E1F0E0E0933805F09339050895E4
:1026B600A0913805B09139050895E093B105E0E0A1
:1026C600E093B2050895E091B205EF5FE093B2059D
:1026D600E150F0E0EF57FA4FE081ECB90895E0934E
:1026E600EE050C944109F0E0EE0FFF1FEA0FFB1F09
:1026F6000E94731708950E9444010E9450010E948F
:102706004C010E944601E1E0E0934B0508950E94CA
:1027160044010E9450010E9448010E944A01E1E0E2
:10272600E0934D0508950E9444010E9450010E94C5
:102736004C010E944601E1E0E0934C0508950E9499
:1027460044010E9450010E9448010E944A01E1E0B2
:10275600E0934E0508950E9442010E944E013DCE2F
:10276600A0E00E946001E1E0E0934F050895E0914A
:102776003405F091350508950E941F170E946B15C8
:102786000895E0E0F0E060E271E408950E94951794
:102796000E949E150895EA8DFB8D6C8D7D8D0895A2
:1027A600EA8BFB8B6C8B7D8B0895A091F005B09125
:1027B600F1058091F2059091F3050895E093F005F7
:1027C600F093F1056093F2057093F30508950E9466
:1027D600F515DF01CB010895EA83FB836C837D83C6
:1027E6000895EA81FB816C817D810895EE87FF87DC
:1027F600688B798B08950E94F515EA87FB876C87AD
:102806007D870895AA89BB898C899D890895AA85A3
:10281600BB858C859D8508950E94A515EE83FF8353
:10282600688779870895EE81FF816885798508959F
:10283600E0913805F09139059FDFA0E0B0E080EA2D
:1028460090E40E94F51508950E94740DAFEF0C9464
:10285600600D0E941517AE2FF7CFE0E0DF01E09183
:102866000706F0E0EA0FFB1F0895E0E0DF01E091C4
:102876000906F0E0EA0FFB1F0895E0E0DF01E091B2
:102886000B06F0E0EA0FFB1F0895E0E0DF01E091A0
:102896000D06F0E0EA0FFB1F0895FA93EA93E09124
:1028A6003805F0913905D5CFFA93EA93A09138050A
:1028B600CBCF0E944C0E0C942C0ED99A0E942A0E55
:1028C600E0E0C899E1E008950E942A0ED9980C9498
:1028D6002A0E0E94F5150E94341508951A930A933C
:1028E6000E94E30F79CF0E946915A0E0B0E080EA6C
:1028F60090E46DCFE0E0F0E060E07BE40E944316F8
:102906000895EE83FF83688779870895AE81BF8136
:10291600888599850895E0E0F0E060E87FE3089512
:1029260082DFA0E0B0E080E89FE30E949E15089554
:10293600E8DFECCF35DF66DFEDECFCEC6CEC7CE33E
:102946000E944316DF01CB01E0E0F0E064EB72E4A5
:102956001DCF4CDF16DF0E94861754DF12DF0E9460
:102966004316DF01CB010E948C11EA87FB876C8737
:102976007D874DCFEC81FD816E817F8108950E9418
:102986007717089550DFC2CFE0E0F0E060E070E036
:102996000895E885F9856A857B8508950E947810F3
:1029A600AC81BD818E819F8112CF109639F080EA6D
:1029B6009FE00197F1F7A8951197C9F70895E99156
:1029C600F9916991799177FB660F771F88277E5772
:1029D600880B7D938C937EE7769567956EF00895C8
:1029E600E991F9916991799177FB660F771F7A0FD3
:1029F600769567950EF0089530976040704009F01F
:102A060070580895552342F4503811F4E0FF04C07D
:102A16003196691F791F6BF050E8572711F45F93C1
:102A2600CFC05F3F31F0660F000C57956795752F45
:102A360008955F9300200AF0CFC0C8C050E8192E51
:102A46001522880F991F9527550F879550E8072E51
:102A56000522660F771F7527550F679508956894A9
:102A660001C0E8945F93F2DF703818F07F3F08F4F6
:102A7600A7C056E1571BAAF4519558300EF45930A9
:102A860030F0EFEFFFEF6FEF7FE777F91AC07727A8
:102A96005523B9F0EE0FFF1F661F771F5A95D1F722
:102AA60010C07727583028F0EF2FF62F672F585091
:102AB600F9CF552331F076956795F795E7955A95B1
:102AC600D1F700200AF481D15F910895689401C07E
:102AD600E894309760407040B1F0002426F07723E8
:102AE60012F4009472D1172E7EE1112032F07A95FD
:102AF600EE0FFF1F661F111CF9CFEF2FF62F612D6A
:102B06005F938ADF5F9108954F93AF01FD01DA016C
:102B1600AB01BC01CA01402D012C142E4F91089522
:102B2600EA0FFB1F681F0895E095F0956095EF5F2B
:102B3600FF4F6F4F08955F9381DF903871F150E832
:102B4600152604C05F937ADF903839F1703821F189
:102B5600572F591B2BF112F4D7DFFACF583118F043
:102B6600AA27BB278827583028F0AB2FB82F8827ED
:102B76005850F9CF552329F08695B795A7955A95BC
:102B8600D9F7502D512572F0CBDF38F46795F795BC
:102B9600E795739513F420C0B7DF3EDF5F91089584
:102BA600D8F7FBCFEA1BFB0B680B51F010F400942F
:102BB600BBDF662392F3EE0FFF1F661F7A95CBF7F6
:102BC600EE27FF27662777275F910895EFEFFFEF40
:102BD6006FE77FEF5F910895EFEFFFEF6FE77FE716
:102BE6005F9108955F932ADF703851F3903841F36F
:102BF60001240894791F23F41CF300203AF3ECCF48
:102C06000F921F932F933F934F93112722279927B4
:102C1600689FA0018F9F302D410D591F6B9F300D6E
:102C2600411D591F8E9F27D0BF9F25D06A9F23D055
:102C3600BE9F1DD0AF9F1BD0AE9F110D291F391F00
:102C4600491F591FE32FF42F652F522F4F913F91A4
:102C56002F911F910F9066232AF0550FEE1FFF1F2D
:102C6600661F02C073954BF2CDDE5F910895100D7D
:102C7600211D391F02C0200D311D491F591F0895FE
:102C86005F93DCDE703821F411200AF49FCFA4CFC5
:102C9600903809F495CF01240894970B1BF4D4F3CC
:102CA6000020F3CF792F1F932F933F934F93112437
:102CB6001127222733274427552790E2AE17BF074F
:102CC6008607410730F0AE1BBF0B860B410B0894FD
:102CD60001C08894551F221F331F111CAA1FBB1F3A
:102CE600881F441F9A9551F7F901612D4F913F9125
:102CF6002F911F91662332F0550FEE1FFF1F661F9F
:102D06007A9543F27FDE5F91089599239AF07723AF
:102D160042F0971748F029F4AE17BF07860720F050
:102D260031F0989488940895989408940895189486
:102D3600889408957723C2F7971798F3A9F7EA17A7
:102D4600FB07680788F399F3ECCFE2D024975F93EB
:102D56009F81992311F4289633CF12F428963CCFFD
:102D66004F9342E48E81BD81AC8188839983AA8387
:102D7600BB83FD01BC01AC81BD818E819F8180DF5B
:102D860088819981AA81BB81DDDE60DE7A9544DE89
:102D960088819981AA81BB81AE27A87F21F4BF17BC
:102DA6008607970729F04A9519F0DF01CB01DDCF99
:102DB6004F915F9128960895EA2BFB2B682B792B70
:102DC6000895F195E195F0400895F0956095709518
:102DD600E195FF4F6F4F7F4F0895EE230E2EEA2F9A
:102DE60019F0EE0F0A94E9F70895EE230E2EEA2F56
:102DF60019F0E6950A94E9F70895EE230E2EFD01E3
:102E060021F0F695E7950A94E1F70895EE230E2E44
:102E1600FD01BC0131F0EE0FFF1F661F771F0A94FC
:102E2600D1F70895EF2FFF27E7FDFFEF08956E2FE7
:102E36007F2FE0E0F0E008956F2F660F660B762F88
:102E460008958B2F880F880B982F0895002498E0FB
:102E5600AA0F001C0E1A10F40E0E01C0A1609A955E
:102E6600B9F7EA2FA02D08950024112490E1AA0FA6
:102E7600BB1F001C111C0E1A1F0A18F40E0E1F1E73
:102E860001C0A1609A9599F7FD01D001089515D06A
:102E9600EBDF0EF496DF0895D9DFEA2F0895E89464
:102EA600B7FF04C0A095B09511966894F7FD89DF29
:102EB600DBDFFD010EF485DF0895E894F7FF02C01D
:102EC60080DF6894B7FF06C0A095B095119600F80C
:102ED600039400FA0895ED93FD936D937C93089502
:102EE6000590F491E02D0895E881F9816A817B814E
:102EF6000895A881B9818A819B810895E883F98321
:102F06006A837B8308957A936A93FA93EA93089582
:102F16009A938A93BA93AA930895689401C0E89401
:102F260001D0D7DD182E862F612D192E972F712DE2
:102F36001B2EBF2FF12D1A2EAE2FE12D089530979F
:102F460060407040089500240A160B060895002478
:102F56000A160B06080609060895EA17FB0768070E
:102F6600790708955A934A933A932A931A930A93A0
:102F760008955D814C813B812A81198108810895DC
:00000001FF
