:100000000C94BD000C9400000C9400000C940000B3
:100010000C9400000C9400000C9400000C94000060
:100020000C9400000C9400000C9400000C94000050
:100030000C9400000C9400000C9491070C940000A8
:100040000C9412060C9400000C947E050C94000095
:100050000C9400000C9400000C9400000C94000020
:100060000C9400000C9400000C9400000C94000010
:100070000C9400000C9400000C941C050C940000DF
:100080000C9400000C9400000C940000050B121A54
:1000900028333F4A555D6D7C8A96A00000002041C0
:1000A0000000A0410000F041CDCC20423333534149
:1000B0001F858741713DAA415C8FCE415C8FF44121
:1000C0009A990D42000020429A995F421027E80356
:1000D00064000A000100001000011000010000008F
:1000E000000000000000000098019B01A901C5016B
:1000F000DD01EE0102021E02240241024402470217
:100100006E027B02870293029F02AB02B702C30218
:10011000D302F50209031D03B103DF03F903FC0356
:10012000FF03020405040804140417042404310422
:1001300048044E04530458045D04670462046C04CC
:1001400078047D048204870401002D4E414E00494D
:100150004E4600000A000400DE0018001F05E800FB
:1001600018003705000118004F0518011800670531
:1001700030010100840748010000F894EE27ECBB31
:10018000F1E0F5BFE5BFE0936C00F8E1F1BDE1BD42
:100190008DE0A2E0BB27ED938A95E9F780E090E13E
:1001A000A0E0B1E0ED930197E9F7E4E5F1E0859196
:1001B0009591009761F0A591B59105901590BF01BB
:1001C000F00105900D920197E1F7FB01F0CF8BBF95
:1001D000EFEFEDBFE0E1EEBFC0E0D5E00C94F30A35
:1001E000AA93E199FECFE981FA81FFBBEEBBE881DA
:1001F000EDBBE29AE19A0C944604BA93AA93E19972
:10020000FECFE881F981FFBBEEBBE09AEDB30C9421
:10021000A504AA930E94400BEA81D801F0E0AE1732
:10022000BF079CF4F801AC81BD81EA0FFB1FFF936F
:10023000EF93F801AB81B0E0AE0FBF1FDEDFAF91EF
:10024000BF91EC930F5F1F4FE7CF198108810C948A
:100250009601AA930E94400BEA81D801F0E0AE1704
:10026000BF078CF4F801AB81B0E0EA0FFB1FFA93F3
:10027000EA93F801AE81BF81AE0FBF1FAC91B0DF32
:100280000F5F1F4FE9CF198108810C949601000080
:100290000895A0E0B0E021D008950E94450BAC8104
:1002A000BD8154971CF420E030E009C0AC81BD81D1
:1002B0000E944A0B9F01E457FF4F249133270E946D
:1002C000500BA0E0B0EC8CEC91E40E94DA0E0E949E
:1002D000170E8F01D80101D027C00E94450BDB9A71
:1002E000D99ADA9800E010E00C30E0E01E07C4F480
:1002F000E02FA0E0B8E00E94A90FAC81BD81EA2305
:10030000FB239F01022E032A11F0D89A01C0D8982E
:10031000BEDFD998BCDFD99ABADF0F5F1F4FE4CF99
:10032000DA9ADB98B4DFDB9A0E940B1026960895C8
:10033000BA93AA9309C30E94560BE381E03011F0EF
:10034000E1E001C0E0E01E2F103011F00E948508AE
:100350009BC20E945C0BA481E881F981E381FE2F9E
:10036000E0E0EA2B0E94610BA0910D05AA2312F494
:100370000E94660BA0910C05B0910D05149724F016
:10038000E3E0F0E00E94610BDFC20E945C0BE381BE
:100390000E946C0B14F40E94770B0E947E0BA9370D
:1003A000E0E0BE0714F00E94830B0E947E0BD397FF
:1003B00014F0979801C0979AC7C20E945C0BE38122
:1003C0000E948A0B12F40E94930BA0910E05B0912B
:1003D0000F05149714F00E94990BB6C20E945C0B93
:1003E000E3810E94A00B2AF4E0E0E0931005E09383
:1003F0001105A0911005B0911105139714F00E94FA
:10040000A90BA2C20E945C0BE381F0E00E94B00B3A
:10041000A0911A05AA232AF4E0E0E0931905E093DD
:100420001A05A0911905B0911A05A536E0E0BE079E
:1004300024F0E4E6F0E00E94B00B86C20E945C0B60
:10044000E481E093120580C20E945C0BE381E29597
:10045000EF70E0930005E881F981A381EFE0EA23E2
:10046000E0930105E881F981E481E295EF70E09382
:100470000205E881F981A481EFE0EA23E093030516
:1004800063C2BA93AA9360C2BA93AA935DC20E9450
:10049000B50BEA81FB81E3811E2FEA81FB81E481B8
:1004A000E03011F0E1E001C0E0E00E2F183008F07C
:1004B00017E0003039F00E94BA0BE095A0911305C7
:1004C000EA2305C00E94BA0BA0911305EA2BE09322
:1004D0001305E1E019810881249608950E94BF0B5D
:1004E000E0E00E94CA0B0E94D20B0E94D70BA7E04B
:1004F0000E94730529C20E94BF0B0E94E00B0E945C
:10050000D20B0E94D70BA7E00E9473051DC20E9468
:10051000E90B0E94F10B0E94D20B0E94D70BA7E0BF
:100520000E94730511C20E94E90B0E94020C0E94F6
:10053000D20B0E94D70BA7E00E94730505C20E9450
:10054000E90B0E94130C0E94D20B0E94D70BA7E06C
:100550000E947305F9C10E94E90B0E94240C0E94BD
:10056000D20B0E94D70BA7E00E947305EDC10E9439
:10057000E90B0E94350C0E94D20B0E94D70BA7E01A
:100580000E947305E1C10E94E90BE0910B050E94F6
:10059000460C0E944B0C0E94D20B0E94D70BA7E086
:1005A0000E947305D1C10E94E90BE0910005EF7034
:1005B000E295E07FAE2FE0910105EF70EA2BA88174
:1005C000B9811396EC93E0910205EF70E295E07F1C
:1005D000AE2FE0910305EF70EA2B0E94520C0E94AF
:1005E000D70BA7E00E947305AFC10E94E90BE09111
:1005F0001405F09115050E94B70F0E94460CE0917A
:1006000014050E94520C0E94D70BA7E00E947305AC
:100610009BC10E94E90BE0911605F09117050E941D
:10062000B70F0E94460CE09116050E94520C0E94E2
:10063000D70BA7E00E94730587C10E94BF0BE0E0C3
:10064000EC93E09113050E94520C0E94D70BA7E097
:100650000E947305E1E0E0931C0576C10E94450B02
:1006600030E000E010E0EC81FD810E171F0754F42C
:10067000F801AE81BF81AE0FBF1FEC913E0F0F5F3F
:100680001F4FF1CFE32F0E940B10289608950E9470
:10069000570C0E9460050E94600C51F4031741F44E
:1006A000DA01AC91A23021F4FA01A681A33009F05D
:1006B0000CC0FA01A181A23521F4DE01169635D0D5
:1006C00003C0DE0116960FD005C0FE0136960E94CB
:1006D000710CE7D161C10E94760C0E9473051981EB
:1006E00008810C9410060E94B50B0E94950CB8F47A
:1006F000F801E281AFE1B5E00E949B0CFF93EF931C
:10070000D801EF91FF910995E13021F40E94A30CEB
:10071000A0E803C00E94A30CA1E8DDDF02C00E9494
:10072000A80C198108810C94E8050E94B50B0E9461
:10073000950C88F4F801E281A7E3B5E00E949B0CD8
:10074000FF93EF93D801EF91FF910995E03011F4F9
:100750000E94A80C02C00E94A80C198108810C9468
:10076000E8050E945C0BE481E0930A05A0910A056C
:10077000A130D9F4E0E0E5BBE0916500E860E093EA
:1007800065000E947E0B0E94AB0CE061E093650067
:10079000E0E0E0931305E1E0E0931205E2E0F0E031
:1007A000E0931D05F0931E0504C00E94B00C0E944A
:1007B000B50CE0E0E0930B05E0931805C5C0BA93D3
:1007C000AA93A0911205A33079F4E881F981E4811C
:1007D000E03011F0E1E001C0E0E0E0930B05E0E083
:1007E000E0931805C69804C00E94B00C0E94B50C96
:1007F000ABC0BA93AA93A8C0BA93AA93A5C0BA9360
:10080000AA93A2C0BA93AA939FC0BA93AA939CC07A
:100810000E94560B1481163020F0E5E0E09312059B
:1008200002C01093120530C0BA93AA938DC00E94E3
:10083000B50B0E94C10C0093140510931505E1E05F
:10084000198108810C94E8050E94B50B0E94C10C27
:100850000093160510931705E1E0198108810C94A7
:10086000E8050E94560BE3811E2F183008F017E0B0
:10087000173019F4E5E0E09312050E94BA0BA0913D
:100880001305EA2B0E94CF0CE1E01881239608950E
:100890000E94BF0BE1E00E94CA0B4DC00E94BF0B3B
:1008A0000E94E00B48C00E94E90B0E94F10B43C07C
:1008B0000E94E90B0E94020C3EC00E94E90B0E94BC
:1008C000130C39C00E94E90B0E94350C34C00E9401
:1008D000E90B0E94240C2FC00E94E90BA091120585
:1008E000E8E00E94A10F0E94460C0E944B0C23C01E
:1008F0000E94BF0B0E94D50C1EC00E94BF0B0E941D
:10090000D50C19C00E94BF0B0E94D50C14C00E94C8
:10091000BF0BE0E0EC93E0911C05E03031F4A881DE
:10092000B9811496E6E0EC9306C0E0911305A88126
:10093000B9811496EC93E881F981FA93EA930E94C5
:10094000D70BA7E00E94DC05E1E0229608950E9403
:10095000570C0E94C5050E94600C51F4031741F426
:10096000DA01AC91A23021F4FA01A681A33009F09A
:100970000CC0FA01A181A23521F4DE0116963CD00B
:1009800003C0DE01169614D007C0FE013696FA9316
:10099000EA93A1E805D0ECD00E940910A49608952E
:1009A0000E94760C0E94DC05198108810C941006C7
:1009B0000E94B50B0E94950CB8F4F801E281AFE4F7
:1009C000B5E00E949B0CFF93EF93D801EF91FF914C
:1009D0000995E13021F40E94A30CA0E803C00E9415
:1009E000A30CA1E8DDDF04C00E94A30CA1E8D8DFBE
:1009F000198108810C94E8050E94B50B0E94950CA2
:100A000098F4F801E281A7E6B5E00E949B0CFF9301
:100A1000EF93D801EF91FF910995E03021F40E9406
:100A2000A30CA1E8BDDF04C00E94A30CA1E8B8DFBD
:100A3000198108810C94E8050E94DC0C10919B0040
:100A400000919C00E12FEC7189F4E82D8394F0E093
:100A5000E758F94F0083EAEFE81509F48824A394D6
:100A6000EAEFEA1519F4AA24E1E0DE2E5FC01A933A
:100A7000E0E0EA1580F4EB2DB394F0E0E758F94F8D
:100A80001081EAEFEB1509F4BB24F894AA9478944A
:100A9000CC24E12F69C0E1E0CE2EE0E065C0EA2D74
:100AA0000895F894AA24BB24882478940895AA93DE
:100AB000E0919B00E072E1F3E881E0939C0063C069
:100AC0000E94E30CEC811E1768F4D1DF0E2FCC20BE
:100AD00011F40E94ED0C0E94F60C18F0E2DFE0E049
:100AE00067C0F0CF64C0AA931A9310E0E9811E1783
:100AF00020F40E94000DDBDFF9CF68C00E94DC0CFF
:100B00001BB10CB1E12FEC7189F4E52D5394F0E0A9
:100B1000E158FA4F0083EAEFE51509F45524739480
:100B2000EAEFE71519F47724E1E06E2E09911991A7
:100B3000E991EFBFF991E99118951A93E0E0E71573
:100B400080F4E42D4394F0E0E158FA4F1081EAEF8D
:100B5000E41509F44424F8947A9478949924E12FC4
:100B600003C0E1E09E2EE0E019910895E72D08957D
:100B7000F89477244424552478940895AA935D9B8F
:100B8000FECFE881ECB9219608950E94E30CEC8138
:100B90001E1768F4D2DF0E2F992011F40E94ED0C7D
:100BA0000E94F60C18F0E4DFE0E002C0F0CFE12F85
:100BB0000E940B1027960895AA931A9310E0E981DA
:100BC0001E1720F40E94000DD9DFF9CFE12F188104
:100BD00024960895AA930E940410EC81E7B985E356
:100BE0008A95F1F7369A349BFECF349A04B115B149
:100BF000F801662777270E94500EA0E0B0E088E455
:100C000092E40E94DA0EDF01CB01E0E0F0E060E860
:100C100074E40E94280F0E94190E9F010E940B107D
:100C200025960895AA93BA93EA93FA93EFB7EA93B5
:100C3000E6E0E2BFA6E0B5E00E94090DE991EFBF52
:100C4000F991E991B991A99118950E94400BE1ECB5
:100C5000EDBDE0E8ECBDA0910B05A13021F4A09121
:100C60001805A03009F08BC0E0917707F091780764
:100C7000309789F50E940F0DE081E295E07FF0E06A
:100C8000E0937907F0937A07E0E0E0937B07E09345
:100C90007C0700E010E00430E0E01E0764F40E94EE
:100CA0000F0D1080E02FA8E00E94A10FE12119F4A0
:100CB0000F5F1F4FF0CF00937F07109380070E94B4
:100CC000160D0E94190D14F00E941F0D0E94250D93
:100CD0000E942F0D54C00E94360D119731F4E091FF
:100CE0007B07E5BB0E943B0D4AC00E94360D129760
:100CF00061F40E94160D0E94190D14F00E941F0D40
:100D00000E94250D0E94420D3AC00E94360D139795
:100D100031F4E0917B07E5BB0E94490D30C00E9491
:100D2000360D149761F40E94160D0E94190D14F0EF
:100D30000E941F0D0E94250D0E94500D20C00E9490
:100D4000360D159741F40E94570DE0917B07E5BBE6
:100D50000E945D0D14C00E94360D169781F40E940A
:100D6000640D0E94670D199754F00E946C0DA091BC
:100D70007507B0917607149714F00E94740D0991CD
:100D800019910895E6EEEDBDE0E0ECBDA0910B05F4
:100D9000A13021F4A0911805A03009F0C1C0E09164
:100DA0007707F09178073097F1F40E940F0DE081FA
:100DB0000E2EE295E07FAE2FE02DE095EF70EA2B4E
:100DC000F0E0E0937907F0937A07EF70F070E0932A
:100DD0007B07F0937C07E0917907E5BB0E94570DF4
:100DE0000E942F0D9DC00E94360D119749F40E945C
:100DF000640D0E94670D1F9714F00E943B0D90C078
:100E00000E94360D129741F40E94570DE0917B0726
:100E1000E5BB0E94420D84C00E94360D139749F431
:100E20000E947E0D0E94670D509714F00E94490D9C
:100E300077C00E94360D149741F40E94570DE0913F
:100E40007B07E5BB0E94500D6BC00E94360D1597C5
:100E500049F40E947E0D0E94670D509714F00E9485
:100E60005D0D5EC00E94360D169751F40E94570D1D
:100E7000E0917B07E5BBE7E0F0E00E94820D50C007
:100E80000E94360D179759F40E947E0D0E94670D3F
:100E9000509724F0E8E0F0E00E94820D41C00E94EB
:100EA000360D189751F40E94570DE0917B07E5BB72
:100EB000E9E0F0E00E94820D33C00E94360D1997E0
:100EC00059F40E947E0D0E94670D509724F0EAE0CD
:100ED000F0E00E94820D24C00E94360D1A9751F452
:100EE0000E94570DE0917B07E5BBEBE0F0E00E942C
:100EF000820D16C00E94360D1B9791F40E94640D5E
:100F00000E94670DAC36E1E0BE0754F00E946C0D04
:100F1000A0917507B0917607149714F00E94740D94
:100F200008950A921A92FA926A937A938A939A93FC
:100F3000AA93BA93EA93FA93EFB7EA93E0918307FF
:100F4000E03011F482DE01C01DDFE991EFBFF991BD
:100F5000E991B991A9919991899179916991F990C2
:100F6000199009901895EFE3EABBE4E0EBBBE0E4ED
:100F7000E7BBE1E0E8BBEFEFE4BBE0E0E5BBE0E8C6
:100F8000E1BBE0E0E2BBE2E1E2B9E0ECE09361006A
:100F9000E0E0E0936200EFEFE0936400E0E0E093D4
:100FA0006500E0BFE4E0E3BFE6E0E2BFE0E0E1BF10
:100FB0000E94870DE1ECEDBDE0E8ECBDE0E0E7BDAF
:100FC000E6BDEBBDEABDE9BDE8BDE0937900E09385
:100FD0007800E5E0E7BFE0E0E0937D00E2E0EBB918
:100FE000E8E9EAB9E6E0E0939500E0E0E0939000FC
:100FF000E3E3E9B9E2E0E0939B00E8E9E0939A00DB
:10100000E6E0E0939D00E0E0E0939800E2E2E09308
:101010009900E0E0E7B9E4E8E6B90895E0E0E0939C
:101020001B05E4E6F0E0E0930805F0930905E0E035
:10103000E0930A05E0930B050E94930BE1E0F0E0DA
:10104000E0931005F0931105E0E0E0931205E0E471
:10105000E09313050E94660B0E948C0D08950E9478
:101060007E0B0E944D0108957EDFD8DF96D00E944E
:101070004901F5DFB09B02C0E1E001C0E0E0E09390
:101080008307A0918307A13099F4DD9AECE0E09307
:101090000005EAE0E0930105E9E0E0930205EAE0FB
:1010A000E09303050E94870DE7EEEDBDE0E008C088
:1010B000DC9A0E948C0D0E94870DE1ECEDBDE0E80A
:1010C000ECBD08950E94B605E73020F00E94990D0E
:1010D000E1E008950E944F05E73020F00E94990D4D
:1010E000E2E00895A0910405B0910505E0910605A0
:1010F000F0910705EA1BFB0BED32A1E0FA0720F0A7
:101100000E94990DE3E00895DDCF2B97FE01FA933D
:10111000EA93E0E0EA93ABE0B0E00E94300BE1E458
:10112000E883E0910B05E03011F0E1E001C0E0E080
:10113000EA83E0910C05F0910D050E94B70FEB8357
:10114000E0910C05EC83E0910805ED83E0910E053C
:10115000EE83E0911005EF83E0911205E887E091BE
:101160000005E295E07FAE2FE0910105EF70EA2BDC
:10117000E987E0910205E295E07FAE2FE09103055B
:10118000EF70EA2BEA87FE01FA93EA93EAE0EA932A
:10119000ABE00E9429012B96089564971A930A9355
:1011A000FE013296FA93EA93E0E0EA93A4E1B0E01C
:1011B0000E94300BFE013296FA93EA93EAE0EA933A
:1011C000ABE00E940901FE0132968F01D801AC917B
:1011D000A13409F073C0E0E0E0930A05F801E3816F
:1011E000FE2FE0E0DF01F801E481F0E0EA2BFB2BC9
:1011F0000E94610BA0910D05AA2312F40E94660BB8
:10120000A0910C05B0910D05149724F0E3E0F0E0F7
:101210000E94610BF801E5810E946C0B14F40E949E
:10122000770B0E947E0BA937E0E0BE0714F00E9406
:10123000830BF801E6810E948A0B12F40E94930B43
:10124000A0910E05B0910F05149714F00E94990B10
:10125000F801E7810E94A00B2AF4E0E0E09310057A
:10126000E0931105A0911005B0911105139714F0AA
:101270000E94A90BF801E085E0931205F801E185D1
:10128000E295EF70E0930005F801A185EFE0EA2315
:10129000E0930105F801E285E295EF70E093020525
:1012A000F801A285EFE0EA23E09303050E947E0B9C
:1012B000D39714F0979801C0979A02C0AFDE25DF4C
:1012C000198108816696089524970E94021000E013
:1012D00010E0A09173070E94EA059F01E091730757
:1012E000F0917407309781F42A31E0E03E0734F042
:1012F000E0911305E0610E94CF0C05C0E091130559
:10130000EF7EE09313050FC10E94A20D119709F023
:10131000D5C0A0910A05A13021F4A0911205A130F9
:1013200009F0C6C00E947E0BD3970CF45DC00E94EA
:10133000A70D1CF40E94AE0D56C00E947E0B549760
:101340001CF400E010E005C00E947E0B0E944A0BD6
:101350008F010E94B60D7F936F93FF93EF930E94CE
:10136000C40D0E94C90D0E94F10F0E94830EAF911F
:10137000BF918F919F910E946D0F09F008F411C0E9
:101380000E94500B7F936F93FF93EF930E94D00DB9
:101390000E948A0EAF91BF918F919F910E946D0F15
:1013A00008F014C00E94D20D59F00E94D90D0E947D
:1013B000DC0D2CF00E94E20DEE7FE093130505C0DA
:1013C000E0911305EE7FE09313050DC0E1E0E0939B
:1013D00012050E94D90D0E94DC0D2CF00E94E20D36
:1013E000E1600E94CF0C5AC00E94A70D1CF40E941D
:1013F000AE0D54C00E947E0B54971CF400E010E028
:1014000005C00E947E0B0E944A0B8F010E94B60D00
:101410007F936F93FF93EF930E94D00D0E94F10F83
:101420000E94830EAF91BF918F919F910E946D0F8B
:1014300009F008F411C00E94500B7F936F93FF9343
:10144000EF930E94D00D0E948A0EAF91BF918F91B1
:101450009F910E946D0F08F014C00E94D20D59F0A8
:101460000E94D90D0E94DC0D2CF00E94E20DEE7F4F
:10147000E093130505C0E0911305EE7FE09313059B
:101480000DC0E1E0E09312050E94D90D0E94DC0D31
:101490002CF00E94E20DE1600E94CF0C849B07C0FB
:1014A000E0E0E5BBE0911305E1600E94CF0C05C0D0
:1014B000E0E0E0938107E093820735C00E94A20D2F
:1014C000129789F5A0910B05A13021F4A091180580
:1014D000A13009F028C0E0E0E0930B052A31E0E0FC
:1014E0003E07DCF0E0911305ED7FE0931305A9E1E1
:1014F000B5E00E94090DA0911905B0911A05A83E0A
:10150000E3E0BE0724F0E7EEF3E00E94B00BE091C9
:101510006200E068E093620005C0E0911305E260BC
:101520000E94CF0CC69AA3E7B7E00E94090D0E9463
:10153000A20D13972CF0E0E0E0937307E09374079B
:101540000E9409102A960895A0911305A13030F049
:10155000E0916200E064E09362000DC0E0916200FF
:10156000EF7BE0936200A0911205A43021F4E0919A
:101570006200E06803C0E0916200EF77E0936200F0
:101580000895E0911B05E030A9F4A0E0B0E00E94CE
:10159000AB0CE77FE0936500E0916500EF7EE093A0
:1015A0006500E0E0E0930A05E0931205E1E0E093D6
:1015B0001B0518C0A0911B05A13019F485DEC4DFFE
:1015C00011C0A0911B05A23069F4E0E0E0931B0577
:1015D000E0916200EF77E0936200E0916200E064E6
:1015E000E0936200089540DDE0E0F0E0AF019F018C
:1015F000789468DD1E2F113051F40E94A70420E07A
:1016000030E0E0911305EF7DE093130527C0123021
:1016100051F40E94470340E050E0E0911305EF7B56
:10162000E09313051BC01330C9F4ABDFF901319609
:101630009F0138973CF020E030E0E0911305E06234
:101640000E94CF0CFA013196AF0138973CF040E090
:1016500050E0E0911305E0640E94CF0CCACFFFCFA9
:10166000BA93AA93B981A881109631F0FC81EB81DD
:101670006A8161931197E9F7EB81FC8125960895C2
:101680001A930A9300E010E00895BA93AA930E9477
:10169000041008955497EAE0F0E00E94D40F0895F2
:1016A000F9010E94BC0F0E94500E0895BA93AA93AC
:1016B0001A93E981FA810895BA93AA93E881F9818E
:1016C0000895E0930C05F0930D050895E0E0E09394
:1016D0000C05E0930D050895F0E0E0930805F09304
:1016E0000905A0910805B0910905DC970895ECE380
:1016F000F0E0E0930805F09309050895A09108052E
:10170000B09109050895E8E7F0E0E0930805F0934B
:1017100009050895F0E0E0930E05F0930F05A09100
:101720000F05AA230895E0E0E0930E05E0930F056E
:101730000895E3E0F0E0E0930E05F0930F050895BF
:10174000F0E0E0931005F0931105A0911105AA2394
:101750000895E2E0F0E0E0931005F093110508959C
:10176000E0931905F0931A050895BA93AA931A9372
:101770000A930895E12FA1E00E94990F0895BA936A
:10178000AA93A881B9811296E0E8EC93A881B98167
:1017900013960895EC93E0910A05A881B9811496F7
:1017A000EC930895E881F981FA93EA930895A5E00E
:1017B000B0E00E942E03A881B9811596EC93F2CF78
:1017C000E1E0EC93E0910B05A881B9811496EC93CC
:1017D0000895BA93AA93A881B9811296E0E8EC9390
:1017E0000895E0910C05F0910D050E94B70FA881B6
:1017F000B9811396EC93E0910C05A881B9811496F8
:10180000EC930895E0910805F09109050E94B70F47
:10181000A881B9811396EC93E0910805A881B9815C
:101820001496EC930895E0910E05F0910F050E9437
:10183000B70FA881B9811396EC93E0910E05A881AA
:10184000B9811496EC930895E0911005F09111057B
:101850000E94B70FA881B9811396EC93E09110050F
:10186000A881B9811496EC930895E0911905F0913F
:101870001A050E94B70FA881B9811396EC93E091E5
:101880001905A881B9811496EC930895A881B981AE
:101890001396EC930895E0911205A881B9811496EE
:1018A000EC930895A881B9811496EC937BCF6E9741
:1018B0000E940210FE013696FA93EA93A7E008957B
:1018C0001E2FFE013696AF01FE013696FA93EA937B
:1018D000A5E0B0E00E942E030E2FFA0135811730EB
:1018E0000895FA93EA93A1E80C946B03AA931A93D0
:1018F0000A930B811C81EA81D8011296EC93D801DE
:101900001396E0E0EC93D8011496EC931A930A93A3
:10191000A5E0B0E00E942E03D8011596EC93EB8170
:10192000FC81FA93EA93A7E008950A811B81F801EC
:10193000A281AC300895F0E0EE0FFF1FAE0FBF1F85
:101940000E94E70F0895EA81FB81FA93EA930895D4
:10195000EA81FB81C6CF0E944D01E09165000895A8
:10196000E0E0E5BBA0E0B0E0F6CFE77FE093650004
:10197000E0916500EF7EE0936500E0E0E093120502
:101980000895EA81FB81E381FE2FE0E0DF01EA8137
:10199000FB81E481F0E0EA2BFB2B8F010895E093BB
:1019A0001305E2E0E0931B050895E0E0EC93A881C5
:1019B000B9811496EC930895EA93FA93EFB7EA93FA
:1019C0001A930A930895AA930E94041010E000E06D
:1019D00020910605309107050895E12FAD81BE8164
:1019E000F0E0EA0FFB1F00831F5F0895A09106053A
:1019F000B0910705A21BB30BA93BEBE0BE0708950E
:101A0000E12F1F5FAA81BB81F0E0AE0FBF1FAC9139
:101A10000895ED91FD913196FE93EE930895E09136
:101A20007507F0917607E050FB4F0895AFE7B7E0F8
:101A3000F0CFA0917F07B091800714970895E0E060
:101A4000E0937F07E09380070895E0917F07A8E087
:101A50000E94A10FA0917907EA2BE5BB0895E1E070
:101A6000F0E0E0937707F09378070895A091770767
:101A7000B09178070895E2E0F0E0E0937707F09303
:101A800078070895E3E0F0E0E0937707F0937807B4
:101A90000895E4E0F0E0E0937707F0937807089585
:101AA000E5E0F0E0E0937707F09378070895E0E051
:101AB000E0937D07E0937E070895E6E0F0E0E09391
:101AC0007707F09378070895ADE7B7E0A2CFA0912C
:101AD0007D07B0917E070895E0E0E0937707E093FB
:101AE0007807A5E7B7E095CFE0E0E5BBE0937507A1
:101AF000E0937607E1E0E09318050895E091790717
:101B0000E5BBE2CFE0937707F09378070895E0E034
:101B1000EFBDE1E0EEBD0895E2E0E0930005E1E015
:101B2000E0930105E8E0E0930205E4E0E0930305BB
:101B30000895E0910605F0910705E0930405F09300
:101B400005050895A0917307B09174070895A091B9
:101B50001D05B0911E050E94FE0F0895ADE1B5E090
:101B6000ED91FD913197FE93EE930895F801ACE964
:101B7000B0E00E94B20FEA0FFB1F0E94EB0FEE8352
:101B8000FF83688779878CCDAE81BF8188859985F1
:101B90000895EDECFCEC6CE47EE30E94DA0EF4CFE9
:101BA000F3DFF7CFE2E0E0931205E0911305E17077
:101BB0000895A1E8B7E02DCFA0918107B0918207E9
:101BC00014970895E0E0E0938107E0938207E091A5
:101BD00013050895552342F4503811F4E0FF04C072
:101BE0003196691F791F6BF050E8572711F45F9306
:101BF000CFC05F3F31F0660F000C57956795752F8A
:101C000008955F9300200AF0CFC0C8C050E8192E95
:101C10001522880F991F9527550F879550E8072E95
:101C20000522660F771F7527550F679508956894ED
:101C300001C0E8945F93F2DF703818F07F3F08F43A
:101C4000A7C056E1571BAAF4519558300EF45930ED
:101C500030F0EFEFFFEF6FEF7FE777F91AC07727EC
:101C60005523B9F0EE0FFF1F661F771F5A95D1F766
:101C700010C07727583028F0EF2FF62F672F5850D5
:101C8000F9CF552331F076956795F795E7955A95F5
:101C9000D1F700200AF445D15F910895689401C0FE
:101CA000E894309760407040B1F0002426F077232C
:101CB00012F4009436D1172E7EE1112032F07A957D
:101CC000EE0FFF1F661F111CF9CFEF2FF62F612DAE
:101CD0005F938ADF5F9108954F93AF01FD01DA01B1
:101CE000AB01BC01CA01402D012C142E4F91089567
:101CF000EA0FFB1F681F0895E095F0956095EF5F70
:101D0000FF4F6F4F08955F9381DF903871F150E876
:101D1000152604C05F937ADF903839F1703821F1CD
:101D2000572F591B2BF112F4D7DFFACF583118F087
:101D3000AA27BB278827583028F0AB2FB82F882731
:101D40005850F9CF552329F08695B795A7955A9500
:101D5000D9F7502D512572F0CBDF38F46795F79500
:101D6000E795739513F420C0B7DF3EDF5F910895C8
:101D7000D8F7FBCFEA1BFB0B680B51F010F4009473
:101D8000BBDF662392F3EE0FFF1F661F7A95CBF73A
:101D9000EE27FF27662777275F910895EFEFFFEF84
:101DA0006FE77FEF5F910895EFEFFFEF6FE77FE75A
:101DB0005F9108955F932ADF703851F3903841F3B3
:101DC00001240894791F23F41CF300203AF3ECCF8C
:101DD0000F921F932F933F934F93112722279927F9
:101DE000689FA0018F9F302D410D591F6B9F300DB3
:101DF000411D591F8E9F27D0BF9F25D06A9F23D09A
:101E0000BE9F1DD0AF9F1BD0AE9F110D291F391F44
:101E1000491F591FE32FF42F652F522F4F913F91E8
:101E20002F911F910F9066232AF0550FEE1FFF1F71
:101E3000661F02C073954BF2CDDE5F910895100DC1
:101E4000211D391F02C0200D311D491F591F089542
:101E50005F93DCDE703821F411200AF49FCFA4CF09
:101E6000903809F495CF01240894970B1BF4D4F310
:101E70000020F3CF792F1F932F933F934F9311247B
:101E80001127222733274427552790E2AE17BF0793
:101E90008607410730F0AE1BBF0B860B410B089441
:101EA00001C08894551F221F331F111CAA1FBB1F7E
:101EB000881F441F9A9551F7F901612D4F913F9169
:101EC0002F911F91662332F0550FEE1FFF1F661FE3
:101ED0007A9543F27FDE5F91089599239AF07723F4
:101EE00042F0971748F029F4AE17BF07860720F095
:101EF00031F09894889408959894089408951894CB
:101F0000889408957723C2F7971798F3A9F7EA17EB
:101F1000FB07680788F399F3ECCFF195E195F04062
:101F20000895F09560957095E195FF4F6F4F7F4F45
:101F30000895EE230E2EEA2F19F0EE0F0A94E9F71A
:101F40000895EE230E2EEA2F19F0E6950A94E9F78C
:101F50000895EE230E2EFD0121F0F695E7950A94E3
:101F6000E1F70895EE0FFF1FEE0FFF1F0895EF2F0B
:101F7000FF27E7FDFFEF08956F2F660F660B762FA3
:101F800008950024112490E1AA0FBB1F001C111C0E
:101F90000E1A1F0A18F40E0E1F1E01C0A1609A959A
:101FA00099F7FD01D001089504D0EBDF0EF4B5DF01
:101FB0000895E894F7FF02C0B0DF6894B7FF06C049
:101FC000A095B095119600F8039400FA0895ED914C
:101FD000FC91119708950590159065917491F00109
:101FE0000895182E862F612D192E972F712D1B2ED7
:101FF000BF2FF12D1A2EAE2FE12D089500240A16C1
:102000000B0608955A934A933A932A931A930A9384
:1020100008955D814C813B812A8119810881089551
:00000001FF
