:040000000C94C1009B
:100004000C9400000C9400000C9400000C9400006C
:100014000C9400000C9400000C9400000C9400005C
:100024000C9400000C9400000C9400000C9400004C
:100034000C9400000C943E070C9400000C941306DE
:100044000C9400000C947F050C9400000C940000A8
:100054000C9400000C9400000C9400000C9400001C
:100064000C9400000C9400000C9400000C9400000C
:100074000C9400000C941D050C9400000C940000DA
:100084000C9400000C940000050B121A28333F4A0C
:10009400555D6D7C8A96A000000020410000A041BF
:1000A4000000F041CDCC2042333353411F858741BA
:1000B400713DAA415C8FCE415C8FF4419A990D4207
:1000C400000020429A995F421027E80364000A0066
:1000D40001000010000110000100000000000000F9
:1000E400000000009C019F01AD01C901E101F20182
:1000F400060222022802450248024B0272027F02D3
:100104008B029702A302AF02BB02C702D702F90215
:100114000D032103B203E003FA03FD030004030407
:1001240006040904150418042504320449044F0480
:10013400540459045E04680463046D0479047E0461
:1001440083048804881301002D4E414E00494E4615
:1001540000000A000400DE0018001F05E800180073
:100164003705000118004F05180118006705300114
:1001740002008407480101008B074A010000F8943B
:10018400EE27ECBBF1E0F5BFE5BFE0936C00F8E1CE
:10019400F1BDE1BD8DE0A2E0BB27ED938A95E9F7BF
:1001A40080E090E1A0E0B1E0ED930197E9F7E6E5A6
:1001B400F1E085919591009761F0A591B591059035
:1001C4001590BF01F00105900D920197E1F7FB0135
:1001D400F0CF8BBFEFEFEDBFE0E1EEBFC0E0D5E0C5
:1001E4000C94860AAA93E199FECFE981FA81FFBBB8
:1001F400EEBBE881EDBBE29AE19A0C944704BA9312
:10020400AA93E199FECFE881F981FFBBEEBBE09AA6
:10021400EDB30C94A604AA930E94E70AEA81D801DC
:10022400F0E0AE17BF079CF4F801AC81BD81EA0F82
:10023400FB1FFF93EF93F801AB81B0E0AE0FBF1F3C
:10024400DEDFAF91BF91EC930F5F1F4FE7CF1981B2
:1002540008810C949A01AA930E94E70AEA81D801C2
:10026400F0E0AE17BF078CF4F801AB81B0E0EA0F01
:10027400FB1FFA93EA93F801AE81BF81AE0FBF1F53
:10028400AC91B0DF0F5F1F4FE9CF198108810C9447
:100294009A0100000895A0E0B0E021D008950E94E2
:1002A400EC0AAC81BD8154971CF420E030E009C015
:1002B400AC81BD810E94F10A9F01E457FF4F249154
:1002C40033270E94F70AA0E0B0EC8CEC91E40E9482
:1002D400940E0E94D10D8F01D80101D027C00E9435
:1002E400EC0ADB9AD99ADA9800E010E00C30E0E0EE
:1002F4001E07C4F4E02FA0E0B8E00E94630FAC81B5
:10030400BD81EA23FB239F01022E032A11F0D89A10
:1003140001C0D898BEDFD998BCDFD99ABADF0F5F85
:100324001F4FE4CFDA9ADB98B4DFDB9A0E94C50F43
:1003340026960895BA93AA9306C30E94FD0AE38100
:10034400E03011F0E1E001C0E0E01E2F103011F0C8
:100354000E941E0898C20E94030BA481E881F981BF
:10036400E381FE2FE0E0EA2B0E94080BA0910D052B
:10037400AA2312F40E940D0BA0910C05B0910D0557
:10038400149724F0E3E0F0E00E94080BDCC20E9422
:10039400030BE3810E94130B14F40E941E0B0E94B2
:1003A400250BA937E0E0BE0714F00E942A0B0E9437
:1003B400250BD39714F0979801C0979AC4C20E9452
:1003C400030BE3810E94310B12F40E943A0BA091BB
:1003D4000E05B0910F05149714F00E94400BB3C2A0
:1003E4000E94030BE3810E94470B2AF4E0E0E093B0
:1003F4001005E0931105A0911005B0911105139714
:1004040014F00E94500B9FC20E94030BE381F0E0A2
:100414000E94570BA0911A05AA232AF4E0E0E09366
:100424001905E0931A05A0911905B0911A05A5368E
:10043400E0E0BE0724F0E4E6F0E00E94570B83C23C
:100444000E94030BE481E09312057DC20E94030B1A
:10045400E381E295EF70E0930005E881F981A381DF
:10046400EFE0EA23E0930105E881F981E481E29574
:10047400EF70E0930205E881F981A481EFE0EA23BB
:10048400E093030560C2BA93AA935DC2BA93AA9398
:100494005AC20E945C0BEA81FB81E3811E2FEA8130
:1004A400FB81E481E03011F0E1E001C0E0E00E2FD7
:1004B400183008F017E0003039F00E94610BE09525
:1004C400A0911305EA2305C00E94610BA0911305B6
:1004D400EA2BE0931305E1E019810881249608953D
:1004E4000E94660BE0E00E94710B0E94790B0E944F
:1004F4007E0BA7E00E94740526C20E94660B0E9430
:10050400870B0E94790B0E947E0BA7E00E94740562
:100514001AC20E94900B0E94980B0E94790B0E94B1
:100524007E0BA7E00E9474050EC20E94900B0E94ED
:10053400A90B0E94790B0E947E0BA7E00E94740510
:1005440002C20E94900B0E94BA0B0E94790B0E9477
:100554007E0BA7E00E947405F6C10E94900B0E94D6
:10056400CB0B0E94790B0E947E0BA7E00E947405BE
:10057400EAC10E94900B0E94DC0B0E94790B0E943E
:100584007E0BA7E00E947405DEC10E94900BE091EF
:100594000B050E94ED0B0E94F20B0E94790B0E9446
:1005A4007E0BA7E00E947405CEC10E94900BE091DF
:1005B4000005EF70E295E07FAE2FE0910105EF704A
:1005C400EA2BA881B9811396EC93E0910205EF70B0
:1005D400E295E07FAE2FE0910305EF70EA2B0E94D5
:1005E400F90B0E947E0BA7E00E947405ACC10E9427
:1005F400900BE0911405F09115050E94710F0E9473
:10060400ED0BE09114050E94F90B0E947E0BA7E00C
:100614000E94740598C10E94900BE0911605F09118
:1006240017050E94710F0E94ED0BE09116050E94C0
:10063400F90B0E947E0BA7E00E94740584C10E94FE
:10064400660BE0E0EC93E09113050E94F90B0E9425
:100654007E0BA7E00E947405E1E0E0931C0573C1E2
:100664000E94EC0A30E000E010E0EC81FD810E17FE
:100674001F0754F4F801AE81BF81AE0FBF1FEC9188
:100684003E0F0F5F1F4FF1CFE32F0E94C50F289637
:1006940008950E94FE0B0E9461050E94070C51F40C
:1006A400031741F4DA01AC91A23021F4FA01A681D6
:1006B400A33009F00CC0FA01A181A23521F4DE01B6
:1006C400169632D003C0DE0116960CD005C0FE018A
:1006D40036960E94180CE4D15EC10E941D0C0E9443
:1006E400740561C10E945C0B0E943C0CB8F4F801D3
:1006F400E281AFE1B5E00E94420CFF93EF93D80191
:10070400EF91FF910995E13021F40E944A0CA0E891
:1007140003C00E944A0CA1E8E0DF02C00E944F0C13
:10072400198108810C94E9050E945C0B0E943C0C21
:1007340088F4F801E281A7E3B5E00E94420CFF933C
:10074400EF93D801EF91FF910995E03011F40E94E5
:100754004F0C02C00E944F0C198108810C94E905CA
:100764000E94030BE481E0930A05A0910A05A130DD
:10077400D9F4E0E0E5BBE0916500E860E093650052
:100784000E94250B0E94520CE061E0936500E0E0BA
:10079400E0931305E1E0E0931205E2E0F0E0E0937A
:1007A4001D05F0931E0504C00E94570C0E945C0CAA
:1007B400E0E0E0930B05E0931805C5C0BA93AA9353
:1007C400A0911205A33079F4E881F981E481E03045
:1007D40011F0E1E001C0E0E0E0930B05E0E0E0931C
:1007E4001805C69804C00E94570C0E945C0CABC04C
:1007F400BA93AA93A8C0BA93AA93A5C0BA93AA938A
:10080400A2C0BA93AA939FC0BA93AA939CC00E9411
:10081400FD0A1481163020F0E5E0E093120502C0D1
:100824001093120530C0BA93AA938DC00E945C0B3A
:100834000E94680C0093140510931505E1E01981DA
:1008440008810C94E9050E945C0B0E94680C0093DB
:10085400160510931705E1E0198108810C94E90548
:100864000E94FD0AE3811E2F183008F017E01730AC
:1008740019F4E5E0E09312050E94610BA0911305C1
:10088400EA2B0E94760CE1E01881239608950E94D9
:10089400660BE1E00E94710B4DC00E94660B0E9442
:1008A400870B48C00E94900B0E94980B43C00E9483
:1008B400900B0E94A90B3EC00E94900B0E94BA0BA1
:1008C40039C00E94900B0E94DC0B34C00E94900B34
:1008D4000E94CB0B2FC00E94900BA0911205E8E060
:1008E4000E945B0F0E94ED0B0E94F20B23C00E943A
:1008F400660B0E947C0C1EC00E94660B0E947C0C3E
:1009040019C00E94660B0E947C0C14C00E94660BE6
:10091400E0E0EC93E0911C05E03031F4A881B9816A
:100924001496E6E0EC9306C0E0911305A881B98122
:100934001496EC93E881F981FA93EA930E947E0B72
:10094400A7E00E94DD05E1E0229608950E94FE0BD7
:100954000E94C6050E94070C51F4031741F4DA0102
:10096400AC91A23021F4FA01A681A33009F00CC0A5
:10097400FA01A181A23521F4DE0116963CD003C010
:10098400DE01169614D007C0FE013696FA93EA9358
:10099400A1E805D0ECD00E94C30FA49608950E944C
:1009A4001D0C0E94DD0519810881259608950E9479
:1009B4005C0B0E943C0CB8F4F801E281AFE4B5E0B2
:1009C4000E94420CFF93EF93D801EF91FF91099598
:1009D400E13021F40E944A0CA0E803C00E944A0CB2
:1009E400A1E8DDDF04C00E944A0CA1E8D8DF198128
:1009F40008810C94E9050E945C0B0E943C0C98F45D
:100A0400F801E281A7E6B5E00E94420CFF93EF9360
:100A1400D801EF91FF910995E03021F40E944A0C2E
:100A2400A1E8BDDF04C00E944A0CA1E8B8DF198127
:100A340008810C94E9050E94830C10919B0000919D
:100A44009C00E12FEC7189F4E82D8394F0E0E758E1
:100A5400F94F0083EAEFE81509F48824A394EAEF38
:100A6400EA1519F4AA24E1E0DE2E5FC01A93E0E04F
:100A7400EA1580F4EB2DB394F0E0E758F94F1081B8
:100A8400EAEFEB1509F4BB24F894AA947894CC24E7
:100A9400E12F69C0E1E0CE2EE0E065C0EA2D0895C3
:100AA400F894AA24BB24882478940895AA93E09106
:100AB4009B00E072E1F3E881E0939C0063C00E9434
:100AC4008A0CEC811E1768F4D1DF0E2FCC2011F4B0
:100AD4000E94940C0E949D0C18F0E2DFE0E067C0D5
:100AE400F0CF64C0AA931A9310E0E9811E1720F492
:100AF4000E94A70CDBDFF9CF68C00E94830C1BB1F6
:100B04000CB1E12FEC7189F4E52D5394F0E0E15838
:100B1400FA4F0083EAEFE51509F455247394EAEFDC
:100B2400E71519F47724E1E06E2E09911991E99102
:100B3400EFBFF991E99118951A93E0E0E71580F475
:100B4400E42D4394F0E0E158FA4F1081EAEFE41504
:100B540009F44424F8947A9478949924E12F03C0F6
:100B6400E1E09E2EE0E019910895E72D0895F894B0
:100B740077244424552478940895AA935D9BFECF4A
:100B8400E881ECB9219608950E948A0CEC811E1725
:100B940068F4D2DF0E2F992011F40E94940C0E9465
:100BA4009D0C18F0E4DFE0E002C0F0CFE12F0E94DA
:100BB400C50F27960895AA931A9310E0E9811E178A
:100BC40020F40E94A70CD9DFF9CFE12F18812496D5
:100BD4000895AA930E94BE0FEC81E7B985E38A9534
:100BE400F1F7369A349BFECF349A04B115B1F8016B
:100BF400662777270E940A0EA0E0B0E088E492E41A
:100C04000E94940EDF01CB01E0E0F0E060E874E4C0
:100C14000E94E20E0E94D30D9F010E94C50F0C9406
:100C2400E50AAA93BA93EA93FA93EFB7EA93E6E054
:100C3400E2BFA6E0B5E00E94B00CE991EFBFF991E4
:100C4400E991B991A99118950E94E70A0E94B60CFE
:100C5400A0910B05A13021F4A0911805A03009F052
:100C640008C1E0918A07E03009F077C0A0918007BD
:100C7400B0918107A132E3E0BE072CF4A0E8B7E00D
:100C84000E94B00C69C0E0917707F0917807309723
:100C9400E1F40E94BB0C0E94C20C0430E0E01E0789
:100CA40044F40E94BB0C0E94D20C19F40F5F1F4F36
:100CB400F4CF0E94D90C0E94E00C14F00E94E60CC0
:100CC4000E94EC0C0E94F60C47C00E94FD0C119788
:100CD40019F40E94020D40C00E94FD0C129761F4A9
:100CE4000E940C0D0E94E00C14F00E94E60C0E947D
:100CF400EC0C0E940F0D30C00E94FD0C139719F4E8
:100D04000E94160D29C00E94FD0C149761F40E94E4
:100D14000C0D0E94E00C14F00E94E60C0E94EC0CF6
:100D24000E94200D19C00E94FD0C1597A9F40E9481
:100D3400270DA0917507B0917607149714F00E94BF
:100D44002D0DE0E0E0937707E0937807A0917F070B
:100D5400A13010F00E94380D8CC0A0918007B09192
:100D64008107A139E1E0BE0754F4A0E8B7E00E948E
:100D7400B00CE0E0E0938207E09383077AC0E0914F
:100D84008207F0918307309729F0A2E8B7E00E9428
:100D9400430D6FC0E0917707F09178073097E1F445
:100DA4000E94BB0C0E94C20C0430E0E01E0744F415
:100DB4000E94BB0C0E94D20C19F40F5F1F4FF4CF9A
:100DC4000E94D90C0E94E00C14F00E94E60C0E94D0
:100DD400EC0C0E94F60C4DC00E94FD0C119719F406
:100DE4000E94020D46C00E94FD0C129761F40E94FD
:100DF4000C0D0E94E00C14F00E94E60C0E94EC0C16
:100E04000E940F0D36C00E94FD0C139719F40E9426
:100E1400160D2FC00E94FD0C149761F40E940C0D56
:100E24000E94E00C14F00E94E60C0E94EC0C0E945C
:100E3400200D1FC00E94FD0C1597D9F40E94270DA8
:100E4400E0E0E0937707E0937807E8ECF0E0E093E4
:100E54008207F0938307A0917507B09176071497E2
:100E640014F00E942D0DA0917F07A13010F00E9474
:100E7400380D0991199108950A921A92FA926A9377
:100E84007A938A939A93AA93BA93EA93FA93EFB7CD
:100E9400EA93DADEA0918407B09185070E94B80F27
:100EA4002CF4A4E8B7E00E94430D05C0E0E0E09311
:100EB4008407E0938507E991EFBFF991E991B9912E
:100EC400A9919991899179916991F99019900990D1
:100ED4001895EFE3EABBE4E0EBBBE0E4E7BBE1E059
:100EE400E8BBEFEFE4BBE0E0E5BBE0E8E1BBE0E05A
:100EF400E2BBE2E1E2B9E0ECE0936100E0E0E09320
:100F04006200EFEFE0936400E0E0E0936500E0BF8F
:100F1400E4E0E3BFE6E0E2BFE0E0E1BF0E94490DA8
:100F2400E0E0E7BDE6BDEBBDEABDE9BDE8BDE093A9
:100F34007900E0937800E5E0E7BFE0E0E0937D002E
:100F4400E2E0EBB9E8E9EAB9E6E0E0939500E0E035
:100F5400E0939000E3E3E9B9E2E0E0939B00E8E981
:100F6400E0939A00E6E0E0939D00E0E0E0939800CF
:100F7400E2E2E0939900E0E0E7B9E4E8E6B9089535
:100F8400E0E0E0931B05E4E6F0E0E0930805F0936D
:100F94000905E0E0E0930A05E0930B050E943A0B93
:100FA400E1E0F0E0E0931005F0931105E0E0E09358
:100FB4001205E0E4E09313050E940D0B0E944E0D10
:100FC40008950E94250B0E945101089582DFD8DF05
:100FD4007BD00E944D01F5DFB09B02C0E1E001C06F
:100FE400E0E0E0938A07DC9A0E944E0D0E94490DCE
:100FF40008950E94B705E73020F00E945B0DE1E000
:1010040008950E945005E73020F00E945B0DE2E055
:101014000895A0910405B0910505E0910605F091AD
:101024000705EA1BFB0BED32A1E0FA0720F00E9452
:101034005B0DE3E00895DDCF2B97FE01FA93EA936D
:10104400E0E0EA93ABE0B0E00E94D70AE1E4E88391
:10105400E0910B05E03011F0E1E001C0E0E0EA834B
:10106400E0910C05F0910D050E94710FEB83E09166
:101074000C05EC83E0910805ED83E0910E05EE8309
:10108400E0911005EF83E0911205E887E0910005F7
:10109400E295E07FAE2FE0910105EF70EA2BE9873E
:1010A400E0910205E295E07FAE2FE0910305EF7039
:1010B400EA2BEA87FE01FA93EA93EAE0EA93ABE0CB
:1010C4000E942D012B96089564971A930A93FE01AA
:1010D4003296FA93EA93E0E0EA93A4E1B0E00E9446
:1010E400D70AFE013296FA93EA93EAE0EA93ABE078
:1010F4000E940D01FE0132968F01D801AC91A134FA
:1011040009F073C0E0E0E0930A05F801E381FE2FE3
:10111400E0E0DF01F801E481F0E0EA2BFB2B0E9420
:10112400080BA0910D05AA2312F40E940D0BA091A7
:101134000C05B0910D05149724F0E3E0F0E00E9453
:10114400080BF801E5810E94130B14F40E941E0B96
:101154000E94250BA937E0E0BE0714F00E942A0B79
:10116400F801E6810E94310B12F40E943A0BA0911F
:101174000E05B0910F05149714F00E94400BF8016E
:10118400E7810E94470B2AF4E0E0E0931005E09326
:101194001105A0911005B0911105139714F00E9448
:1011A400500BF801E085E0931205F801E185E29522
:1011B400EF70E0930005F801A185EFE0EA23E093E6
:1011C4000105F801E285E295EF70E0930205F8016C
:1011D400A285EFE0EA23E09303050E94250BD39751
:1011E40014F0979801C0979A02C0CADE25DF1981CE
:1011F40008816696089524970E94BC0F00E010E0D1
:10120400A0917307E6DC9F01E0917307F0917407E6
:10121400309781F42A31E0E03E0734F0E091130581
:10122400E0610E94760C05C0E0911305EF7EE09327
:1012340013050AC10E94640D119709F0D0C0A09152
:101244000A05A13021F4A0911205A13009F0C1C012
:101254000E94250BD3970CF45FC00E94690D2CF4F7
:10126400ADE1B5E00E94430D56C00E94250B549792
:101274001CF400E010E005C00E94250B0E94F10A56
:101284008F010E94700D7F936F93FF93EF930E94E1
:101294007E0D0E94830D0E94AB0F0E943D0EAF9104
:1012A400BF918F919F910E94270F09F008F411C0FC
:1012B4000E94F70A7F936F93FF93EF930E948A0D26
:1012C4000E94440EAF91BF918F919F910E94270F6E
:1012D40008F014C00E948C0D59F00E94930D0E94D6
:1012E400960D2CF00E949C0DEE7FE093130505C033
:1012F400E0911305EE7FE09313050DC0E1E0E09368
:1013040012050E94930D0E94960D2CF00E949C0DD4
:10131400E1600E94760C5CC00E94690D2CF4ADE182
:10132400B5E00E94430D54C00E94250B54971CF451
:1013340000E010E005C00E94250B0E94F10A8F0115
:101344000E94700D7F936F93FF93EF930E948A0D19
:101354000E94AB0F0E943D0EAF91BF918F919F9160
:101364000E94270F09F008F411C00E94F70A7F9326
:101374006F93FF93EF930E948A0D0E94440EAF91E6
:10138400BF918F919F910E94270F08F014C00E9473
:101394008C0D59F00E94930D0E94960D2CF00E9422
:1013A4009C0DEE7FE093130505C0E0911305EE7FDD
:1013B400E09313050DC0E1E0E09312050E94930D44
:1013C4000E94960D2CF00E949C0DE1600E94760C08
:1013D40005C0E0E0E0938807E093890735C00E94E8
:1013E400640D129789F5A0910B05A13021F4A09109
:1013F4001805A13009F028C0E0E0E0930B052A317C
:10140400E0E03E07DCF0E0911305ED7FE093130587
:10141400A9E1B5E00E94B00CA0911905B0911A059C
:10142400A83EE3E0BE0724F0E7EEF3E00E94570B8A
:10143400E0916200E068E093620005C0E09113056A
:10144400E2600E94760CC69AA3E7B7E00E94B00C53
:101454000E94640D13972CF0E0E0E0937307E0938F
:1014640074070E94C30F2A960895A0911305A13012
:1014740030F0E0916200E064E09362000DC0E0911E
:101484006200EF7BE0936200A0911205A43021F486
:10149400E0916200E06803C0E0916200EF77E093BE
:1014A40062000895E0911B05E030A9F4A0E0B0E0EB
:1014B4000E94520CE77FE0936500E0916500EF7EA7
:1014C400E0936500E0E0E0930A05E0931205E1E0B3
:1014D400E0931B0518C0A0911B05A13019F48BDE05
:1014E400C4DF11C0A0911B05A23069F4E0E0E093D1
:1014F4001B05E0916200EF77E0936200E0916200E7
:10150400E064E0936200089561DDE0E0F0E0AF01A3
:101514009F0178946EDD1E2F113051F40E94A804AF
:1015240020E030E0E0911305EF7DE09313053BC02C
:10153400123051F40E944B0340E050E0E091130557
:10154400EF7BE09313052FC0133069F5ABDFF9018E
:1015540031969F0138973CF020E030E0E09113058C
:10156400E0620E94760CFA013196AF0138973CF0A4
:1015740040E050E0E0911305E0640E94760CE091B5
:101584008407F0918507309721F4A0910B05A030D2
:1015940009F009C0849B07C0E0E0E5BBE0911305B6
:1015A400E1600E94760CB6CFFFCFBA93AA93B981BB
:1015B400A881109631F0FC81EB816A8161931197C7
:1015C400E9F7EB81FC81259608951A930A9300E0CC
:1015D40010E00895BA93AA930E94BE0F08955497F9
:1015E400EAE0F0E00E948E0F0895F9010E94760F60
:1015F4000E940A0E0895BA93AA931A93E981FA8174
:101604000895BA93AA93E881F9810895E0930C05AB
:10161400F0930D050895E0E0E0930C05E0930D05CB
:101624000895F0E0E0930805F0930905A0910805FA
:10163400B0910905DC970895ECE3F0E0E093080528
:10164400F09309050895A0910805B091090508953E
:10165400E8E7F0E0E0930805F09309050895F0E069
:10166400E0930E05F0930F05A0910F05AA230895AA
:10167400E0E0E0930E05E0930F050895E3E0F0E069
:10168400E0930E05F0930F050895F0E0E093100544
:10169400F0931105A0911105AA230895E2E0F0E06A
:1016A400E0931005F09311050895E0931905F09364
:1016B4001A050895BA93AA931A930A930895E12FE9
:1016C400A1E00E94530F0895BA93AA93A881B98107
:1016D4001296E0E8EC93A881B98113960895EC93EF
:1016E400E0910A05A881B9811496EC930895E881E4
:1016F400F981FA93EA930895A5E0B0E00E943203D9
:10170400A881B9811596EC93F2CFE1E0EC93E091D6
:101714000B05A881B9811496EC930895BA93AA9302
:10172400A881B9811296E0E8EC930895E0910C0544
:10173400F0910D050E94710FA881B9811396EC9365
:10174400E0910C05A881B9811496EC930895E09179
:101754000805F09109050E94710FA881B9811396BB
:10176400EC93E0910805A881B9811496EC9308954F
:10177400E0910E05F0910F050E94710FA881B981C7
:101784001396EC93E0910E05A881B9811496EC931D
:101794000895E0911005F09111050E94710FA88140
:1017A400B9811396EC93E0911005A881B981149640
:1017B400EC930895E0911905F0911A050E94710FB8
:1017C400A881B9811396EC93E0911905A881B98198
:1017D4001496EC930895A881B9811396EC93089517
:1017E400E0911205A881B9811496EC930895A8811B
:1017F400B9811496EC937BCF6E970E94BC0FFE01C7
:101804003696FA93EA93A7E008951E2FFE013696C2
:10181400AF01FE013696FA93EA93A5E0B0E00E9488
:1018240032030E2FFA01358117300895FA93EA93A3
:10183400A1E80C946F03AA931A930A930B811C8159
:10184400EA81D8011296EC93D8011396E0E0EC9368
:10185400D8011496EC931A930A93A5E0B0E00E9481
:101864003203D8011596EC93EB81FC81FA93EA9349
:10187400A7E008950A811B81F801A281AC30089584
:10188400F0E0EE0FFF1FAE0FBF1F0E94A10F0895DF
:10189400EA81FB81FA93EA930895EA81FB81C6CF3A
:1018A4000E945101E09165000895E0E0E5BBA0E0ED
:1018B400B0E0F6CFE77FE0936500E0916500EF7E4E
:1018C400E0936500E0E0E09312050895EA81FB816E
:1018D400E381FE2FE0E0DF01EA81FB81E481F0E0B7
:1018E400EA2BFB2B8F010895E0931305E2E0E093CC
:1018F4001B050895E0E0EC93A881B9811496EC935C
:101904000895EA93FA93EFB7EA931A930A93089522
:10191400AA930E94BE0F10E000E0209106053091CA
:1019240007050895E12FAD81BE81F0E0EA0FFB1FAA
:1019340000831F5F0895A0910605B0910705A21BBF
:10194400B30BA93BEBE0BE070895E12F1F5FAA810B
:10195400BB81F0E0AE0FBF1FAC910895ED91FD91F6
:101964003196FE93EE930895E0EEEDBDE0ECECBD10
:101974000895E0917507F0917607E050FB4F0895C4
:10198400E081E295E07FF0E0E0937907F0937A0755
:10199400E0E0E0937B07E0937C0700E010E008952B
:1019A4001080E02FA8E00E945B0FE12108950093CE
:1019B400860710938707A6E8B7E0D0CFA0918607E3
:1019C400B091870714970895E0E0E0938607E093C9
:1019D40087070895E0918607A8E00E945B0FA09115
:1019E4007907EA2BE5BB0895E1E0F0E0E09377079F
:1019F400F09378070895A0917707B0917807089538
:101A0400E0917B07E5BBE2E0F0E0E0937707F09339
:101A140078070895A6E8B7E0A1CFE3E0F0E0E0930B
:101A24007707F09378070895E0917B07E5BBE4E03E
:101A3400F0E0E0937707F09378070895E5E0F0E0AD
:101A4400E0937707F09378070895E0917B07E5BB6F
:101A5400A5E7B7E083CFE0917F07EF5FE0937F07CF
:101A6400E0E0E0937507E09376070895E0E0E09303
:101A74007F07E0938007E0938107E1E0E093180596
:101A84000895ED91FD913197FE93EE930895E0E072
:101A9400EFBDE1E0EEBD68CFE2E0E0930005E1E0F8
:101AA400E0930105E8E0E0930205E4E0E093030538
:101AB4000895E0910605F0910705E0930405F0937D
:101AC40005050895A0917307B09174070895A09136
:101AD4001D05B0911E050E94B80F0895F801ACE9E8
:101AE400B0E00E946C0FEA0FFB1F0E94A50FEE836B
:101AF400FF836887798779CDAE81BF818885998591
:101B04000895EDECFCEC6CE47EE30E94940EF4CFBB
:101B1400F3DFF7CFE2E0E0931205E0911305E17003
:101B24000895A8E8B7E01ACFA0918807B091890773
:101B340014970895E0E0E0938807E0938907E09123
:101B440013050895552342F4503811F4E0FF04C0FE
:101B54003196691F791F6BF050E8572711F45F9392
:101B6400CFC05F3F31F0660F000C57956795752F16
:101B740008955F9300200AF0CFC0C8C050E8192E22
:101B84001522880F991F9527550F879550E8072E22
:101B94000522660F771F7527550F6795089568947A
:101BA40001C0E8945F93F2DF703818F07F3F08F4C7
:101BB400A7C056E1571BAAF4519558300EF459307A
:101BC40030F0EFEFFFEF6FEF7FE777F91AC0772779
:101BD4005523B9F0EE0FFF1F661F771F5A95D1F7F3
:101BE40010C07727583028F0EF2FF62F672F585062
:101BF400F9CF552331F076956795F795E7955A9582
:101C0400D1F700200AF445D15F910895689401C08A
:101C1400E894309760407040B1F0002426F07723B8
:101C240012F4009436D1172E7EE1112032F07A9509
:101C3400EE0FFF1F661F111CF9CFEF2FF62F612D3A
:101C44005F938ADF5F9108954F93AF01FD01DA013D
:101C5400AB01BC01CA01402D012C142E4F910895F3
:101C6400EA0FFB1F681F0895E095F0956095EF5FFC
:101C7400FF4F6F4F08955F9381DF903871F150E803
:101C8400152604C05F937ADF903839F1703821F15A
:101C9400572F591B2BF112F4D7DFFACF583118F014
:101CA400AA27BB278827583028F0AB2FB82F8827BE
:101CB4005850F9CF552329F08695B795A7955A958D
:101CC400D9F7502D512572F0CBDF38F46795F7958D
:101CD400E795739513F420C0B7DF3EDF5F91089555
:101CE400D8F7FBCFEA1BFB0B680B51F010F4009400
:101CF400BBDF662392F3EE0FFF1F661F7A95CBF7C7
:101D0400EE27FF27662777275F910895EFEFFFEF10
:101D14006FE77FEF5F910895EFEFFFEF6FE77FE7E6
:101D24005F9108955F932ADF703851F3903841F33F
:101D340001240894791F23F41CF300203AF3ECCF18
:101D44000F921F932F933F934F9311272227992785
:101D5400689FA0018F9F302D410D591F6B9F300D3F
:101D6400411D591F8E9F27D0BF9F25D06A9F23D026
:101D7400BE9F1DD0AF9F1BD0AE9F110D291F391FD1
:101D8400491F591FE32FF42F652F522F4F913F9175
:101D94002F911F910F9066232AF0550FEE1FFF1FFE
:101DA400661F02C073954BF2CDDE5F910895100D4E
:101DB400211D391F02C0200D311D491F591F0895CF
:101DC4005F93DCDE703821F411200AF49FCFA4CF96
:101DD400903809F495CF01240894970B1BF4D4F39D
:101DE4000020F3CF792F1F932F933F934F93112408
:101DF4001127222733274427552790E2AE17BF0720
:101E04008607410730F0AE1BBF0B860B410B0894CD
:101E140001C08894551F221F331F111CAA1FBB1F0A
:101E2400881F441F9A9551F7F901612D4F913F91F5
:101E34002F911F91662332F0550FEE1FFF1F661F6F
:101E44007A9543F27FDE5F91089599239AF0772380
:101E540042F0971748F029F4AE17BF07860720F021
:101E640031F0989488940895989408940895189457
:101E7400889408957723C2F7971798F3A9F7EA1778
:101E8400FB07680788F399F3ECCFF195E195F040EF
:101E94000895F09560957095E195FF4F6F4F7F4FD2
:101EA4000895EE230E2EEA2F19F0EE0F0A94E9F7A7
:101EB4000895EE230E2EEA2F19F0E6950A94E9F719
:101EC4000895EE230E2EFD0121F0F695E7950A9470
:101ED400E1F70895EE0FFF1FEE0FFF1F0895EF2F98
:101EE400FF27E7FDFFEF08956F2F660F660B762F30
:101EF40008950024112490E1AA0FBB1F001C111C9B
:101F04000E1A1F0A18F40E0E1F1E01C0A1609A9526
:101F140099F7FD01D001089504D0EBDF0EF4B5DF8D
:101F24000895E894F7FF02C0B0DF6894B7FF06C0D5
:101F3400A095B095119600F8039400FA0895ED91D8
:101F4400FC91119708950590159065917491F00195
:101F54000895182E862F612D192E972F712D1B2E63
:101F6400BF2FF12D1A2EAE2FE12D089500240A164D
:101F74000B0608955A934A933A932A931A930A9311
:101F840008955D814C813B812A81198108810895DE
:00000001FF
